:020000040800F2
:1000000090580020D102000845100008850400081F
:10001000411000087D0400088D1700080000000052
:100020000000000000000000000000005112000865
:100030008104000800000000B510000855120008F7
:10004000EB020008EB020008EB020008EB020008DC
:10005000EB020008EB020008EB020008EB020008CC
:10006000EB020008EB020008EB020008EB020008BC
:10007000EB020008EB020008EB020008EB020008AC
:10008000EB020008EB020008EB020008EB0200089C
:10009000EB020008EB020008EB020008EB0200088C
:1000A000EB020008EB020008EB020008EB0200087C
:1000B000ED120008EB020008EB020008EB0200085A
:1000C000EB020008EB020008EB020008EB0200085C
:1000D000EB020008EB02000859150008EB020008CB
:1000E000EB020008EB020008EB020008EB0200083C
:1000F000EB020008EB020008EB020008EB0200082C
:10010000EB020008EB020008EB020008EB0200081B
:10011000EB020008EB020008EB020008EB0200080B
:10012000EB020008EB020008EB020008EB020008FB
:10013000EB0200080000000000000000EB020008D5
:10014000EB020008EB020008EB020008EB020008DB
:10015000EB020008EB020008EB020008EB020008CB
:10016000EB020008EB020008EB020008EB020008BB
:10017000EB020008EB020008EB02000800000000A0
:1001800000000000EB02000800000000000000007A
:10019000EB0200080000000000000000EB02000875
:1001A000000000000000000000000000EB0200085A
:1001B000EB020008EB020008EB020008EB0200086B
:1001C000EB02000800F002F800F072F814A696E8BE
:1001D000000CB244B344DA4501D100F069F8BAE842
:1001E0000F000FA696E83000A5EB040504EB060708
:1001F000AAEB0704A7F101074FEA15154FEA3414DB
:10020000A4F10104AC4201D300F052F813F0010F45
:1002100018BFFB1A43F0010300F001F8DBE71847B1
:100220007C1E00009C1E00000A444FF0000C10F8D9
:10023000013B13F0070408BF10F8014B1D1108BF64
:1002400010F8015B641E05D010F8016B641E01F804
:10025000016BF9D113F0080F1EBF10F8014BAD1C54
:100260000C1B09D16D1E58BF01F801CBFAD505E072
:1002700014F8016B01F8016B6D1EF9D59142D6D3CC
:10028000704700007047000000230024002500266E
:10029000103A28BF78C1FBD8520728BF30C148BFE9
:1002A0000B6070471FB501F0C2FE1FBD10B510BD39
:1002B00000F0A9F81146FFF7F5FF01F02FFD00F05F
:1002C000C7F803B4FFF7F2FF03BC00F0CFF800005B
:1002D0000948804709480047FEE7FEE7FEE7FEE7DA
:1002E000FEE7FEE7FEE7FEE7FEE7FEE70448054916
:1002F000054A064B70470000D9120008C5010008E6
:1003000090520020905800209054002090540020DB
:1003100053EA020C00F069802DE9F04B4FF0000623
:10032000002B1FBFB3FA83F503FA05F424FA05F690
:100330005E4012BF1643B2FA82F502FA05F4C5F127
:1003400020051EBF22FA05FC44EA0C04203556EABB
:10035000044C4FEA144418BF641C4FF000084FF0DF
:100360000009904271EB030C39D3002919BFB1FA8F
:1003700081F701FA07F6B0FA80F700FA07F6C7F13D
:1003800020071EBF20FA07FC46EA0C062037B6FB02
:10039000F4FCA7EB0507103F07F01F0BCBF120067D
:1003A0002CFA06F60CFA0BFB44BFB3460026202FAE
:1003B000A4BF5E464FF0000B5BEA060C08BF4FF08F
:1003C000010B19EB0B0948EB0608ABFB027C06FBA3
:1003D00002CC0BFB03CCC01B71EB0C01C1E70B463D
:1003E000024641464846BDE8F08B13B5084318BFA6
:1003F0004FF0FF300146AFF30080BDE81C4070476E
:10040000704770477047754600F02CF8AE460500FF
:100410006946534620F00700854618B020B5FFF71F
:1004200065FFBDE820404FF000064FF000074FF099
:1004300000084FF0000BAC46ACE8C009ACE8C009BE
:10044000ACE8C009ACE8C00921F007018D4670474F
:1004500010B50446AFF300802046BDE81040FFF71A
:1004600030BF0000004870470052002001491820AA
:10047000ABBEFEE72600020070470000FFE7FEE784
:1004800070470000FFE7FEE782B00190019A43F653
:100490003000C4F202000168114301600068019954
:1004A00008400090009802B07047000082B00190B0
:1004B000019A43F64000C4F2020001681143016052
:1004C0000068019908400090009802B07047000051
:1004D00082B00190019A43F64400C4F20200016820
:1004E000114301600068019908400090009802B033
:1004F0007047000043F60040C4F20200006800F0BC
:100500000F00704781B0009043F60041C4F2020131
:10051000086820F00F00009A1043086001B070478F
:1005200080B588B00390029100200190009002985D
:10053000006890FAA0F00690069820B9FFE7202006
:100540008DF81F0005E00698B0FA80F08DF81F00C6
:10055000FFE79DF81F000190FFE7029800680199EE
:10056000C84000285DD0FFE702980068019A012189
:10057000914008400090009800284ED0FFE7029874
:100580004068012805D0FFE70298406802280DD195
:10059000FFE703980099029A926800F061F90398C6
:1005A0000099029AD26800F00DF9FFE703980099CC
:1005B000029A126900F016F902984068022825D1C3
:1005C000FFE7009890FAA0F00490049820B9FFE7A4
:1005D00020208DF8170005E00498B0FA80F08DF81F
:1005E0001700FFE79DF81700072807D8FFE70398D3
:1005F0000099029A526900F021F806E003980099E8
:10060000029A526900F058F8FFE7FFE70398009953
:10061000029A526800F098F8FFE7019801300190C3
:100620009BE7002008B080BD82B001900091009847
:1006300000040199886102B0704700008AB00590FB
:10064000049103920598006A0290049890FAA0F031
:100650000890089820B9FFE720208DF8270005E0D2
:100660000898B0FA80F08DF82700FFE702989DF80F
:1006700027108A000F219140884300900398019031
:10068000049890FAA0F00690069820B9FFE7202081
:100690008DF81F0005E00698B0FA80F08DF81F0075
:1006A000FFE7009801999DF81F20920091400843B0
:1006B000059908620AB070478AB0059004910392C8
:1006C0000598406A02900498000A90FAA0F00890F9
:1006D000089820B9FFE720208DF8270005E008984A
:1006E000B0FA80F08DF82700FFE702989DF82710F8
:1006F0008A000F219140884300900398019004984C
:10070000000A90FAA0F00690069820B9FFE7202092
:100710008DF81F0005E00698B0FA80F08DF81F00F4
:10072000FFE7009801999DF81F209200914008432F
:10073000059948620AB0704782B001900091009814
:100740000199886102B070478AB0059004910392C4
:10075000059800680290049890FAA0F00890089814
:1007600020B9FFE720208DF8270005E00898B0FAAF
:1007700080F08DF82700FFE702989DF827104A00C7
:10078000032191408843009003980190049890FAC7
:10079000A0F00690069820B9FFE720208DF81F00F2
:1007A00005E00698B0FA80F08DF81F00FFE700988A
:1007B00001999DF81F205200914008430599086057
:1007C0000AB0704783B0029001910092029840688D
:1007D00001998843009A514308430299486003B045
:1007E000704700008AB00590049103920598C06894
:1007F0000290049890FAA0F00890089820B9FFE7BA
:1008000020208DF8270005E00898B0FA80F08DF8D8
:100810002700FFE702989DF827104A000321914026
:100820008843009003980190049890FAA0F00690F5
:10083000069820B9FFE720208DF81F0005E00698F4
:10084000B0FA80F08DF81F00FFE7009801999DF83D
:100850001F205200914008430599C8600AB07047B4
:100860008AB00590049103920598806802900498DC
:1008700090FAA0F00890089820B9FFE720208DF8A2
:10088000270005E00898B0FA80F08DF82700FFE710
:1008900002989DF827104A00032191408843009058
:1008A00003980190049890FAA0F00690069820B959
:1008B000FFE720208DF81F0005E00698B0FA80F0D1
:1008C0008DF81F00FFE7009801999DF81F20520046
:1008D00091400843059988600AB0704783B0029040
:1008E0000191029840690090009A019802EA000183
:1008F000904340EA01400299886103B070470000CC
:1009000080B582B0019001984FF47A7100F002F83E
:1009100002B080BD82B00190009101980099B0FBB7
:10092000F1F001384EF21401CEF2000108604EF2EF
:100930001801CEF20001002008604EF21001CEF244
:1009400000010520086002B07047000047F2000176
:10095000C4F20001086820F480300860704700008D
:1009600081B0009047F20001C4F20001086820F451
:100970004040009A1043086001B0704743F60800F9
:10098000C4F20200006800F0F000704743F608006F
:10099000C4F20200006800F4E050704743F608001B
:1009A000C4F20200006800F46040704743F608009B
:1009B000C4F20200006800F00C00704743F6080023
:1009C000C4F20200006800F00C00704780B582B0ED
:1009D000019000F0A9FB019908600198006800F0FF
:1009E0006BFB019948600198406800F079FB019920
:1009F00088600198406800F085FB0199C86002B0EA
:100A000080BD000043F60001C4F20201086840F016
:100A1000010008607047000043F60000C4F20200C5
:100A20000068C0F34000704781B0009043F60001B9
:100A3000C4F20201086820F0F800009A40EAC200FF
:100A4000086001B07047000043F60400C4F20200E1
:100A5000006800F03F00704743F60400C4F2020053
:100A6000006800F48000704743F60400C4F20200FE
:100A70000068C0F38810704743F60400C4F2020017
:100A8000006800F44030704743F60400C4F20200EE
:100A9000006800F0E040704781B0009043F6080124
:100AA000C4F20201086820F0F000009A10430860C8
:100AB00001B0704781B0009043F60801C4F2020112
:100AC000086820F4E050009A1043086001B07047B5
:100AD00081B0009043F60801C4F20201086820F4D6
:100AE0006040009A1043086001B0704781B00090E8
:100AF00043F60801C4F20201086820F00300009ADE
:100B00001043086001B0704781B0009043F68C013B
:100B1000C4F20201086820F08070009A1043086057
:100B200001B0704781B00090009840F20401C2F219
:100B30000001086001B0704781B0009000996FF02B
:100B40000100086101B0704781B000900099086809
:100B500020F00100086001B07047000081B00090F3
:100B60000099086840F08000086001B070470000FC
:100B700081B000900099086840F00100086001B061
:100B80007047000081B000900099C86840F00100F3
:100B9000C86001B07047000081B0009000994869BA
:100BA00040F00100486101B07047000080B584B09A
:100BB0000390029103980068019003980021C4F209
:100BC0000101884225D0FFE70398B0F1804F20D083
:100BD000FFE7039840F20041C4F20001884218D0B8
:100BE000FFE7039840F60001C4F20001884210D0EC
:100BF000FFE7039840F60041C4F20001884208D0A4
:100C0000FFE7039840F20041C4F20101884208D195
:100C1000FFE7019820F070000299496808430190AD
:100C2000FFE703980021C4F20101884255D0FFE795
:100C30000398B0F1804F50D0FFE7039840F2004195
:100C4000C4F20001884248D0FFE7039840F6000153
:100C5000C4F20001884240D0FFE7039840F600410B
:100C6000C4F20001884238D0FFE7039840F2004107
:100C7000C4F20101884230D0FFE7039844F200013A
:100C8000C4F20101884228D0FFE7039844F20041F2
:100C9000C4F20101884220D0FFE7039844F6000126
:100CA000C4F20101884218D0FFE7039841F6000121
:100CB000C4F20001884210D0FFE7039841F60041DA
:100CC000C4F20001884208D0FFE7039842F2000115
:100CD000C4F20001884208D1FFE7019820F4407077
:100CE0000299C96808430190FFE7019803990860D9
:100CF00003980299896800F029F8039802990988F5
:100D000000F034F803980021C4F20101884208D0B1
:100D1000FFE7039840F20041C4F20101884206D186
:100D2000FFE703980299096900F028F8FFE70398A4
:100D3000FFF732FF002004B080BD000082B00190B8
:100D4000009100980199C86202B0704782B001908A
:100D5000009100980199C86202B0704782B001907A
:100D6000009100980199486202B0704782B00190EA
:100D7000009100980199886202B0704782B001909A
:100D8000009100980199086302B0704781B000900B
:100D90000099C86840F40050C86001B07047000076
:100DA00082B00190FFE7FFE7019850E8030F40F0A1
:100DB00020000090FFE70099019A42E80310002804
:100DC000F2D1FFE7FFE702B07047000080B588B0BE
:100DD0000790069101208DF81700002004900798D5
:100DE00000F08AF800287AD1FFE70798C06849F236
:100DF0000C618843069A5168D2F80CC01369926955
:100E000041EA0C011943114308430799C860079848
:100E10000699896800F0E6F807980699496900F094
:100E2000D3F86846FFF7D2FD079841F20001C4F2FB
:100E30000101884203D1FFE7039804903CE0079842
:100E400044F20041C4F20001884203D1FFE7029856
:100E5000049030E0079844F60001C4F20001884293
:100E600003D1FFE70298049024E0079841F2004183
:100E7000C4F20101884203D1FFE70398049018E00F
:100E8000079844F60041C4F20001884203D1FFE70D
:100E9000029804900CE0079845F20001C4F20001AA
:100EA000884203D1FFE70298049000E0FFE7FFE7E4
:100EB000FFE7FFE7FFE7FFE7049878B1FFE7069851
:100EC000006858B1FFE700208DF8170007980499D3
:100ED000069A1368926900F01FF8FFE7FFE79DF894
:100EE000170008B080BD000081B000900098006835
:100EF000C0B2C00901B0704781B000900098C068CE
:100F0000C0F3403001B0704781B000900098406855
:100F1000C0B201B07047000080B584B00390029168
:100F2000019200930198B0F5004F26D1FFE7029897
:100F30001921A0FB0101009B5A00DB0FFFF7E8F924
:100F4000844648F21F52C5F2EB12ACFB0210410975
:100F50000801642301FB13C3322101EBC301A1FB90
:100F60000221F82202EA511200EB4200C1F34211C1
:100F7000084480B20399886024E002981921A0FBFC
:100F80000101009B9A009B0FFFF7C2F9034648F24C
:100F90001F51C5F2EB11A3FB01204209642002FBA3
:100FA0001033322000EB0310A0FB0101F02000EA17
:100FB000511000EB0210C1F34311084480B20399B1
:100FC0008860FFE704B080BD82B001900091019875
:100FD000406920F44070009908430199486102B0CB
:100FE0007047000082B0019000910198006920F4E0
:100FF0004050009908430199086102B07047000011
:1010000081B0009000994FF41650086000990020BC
:101010004860009988600099C860009A0C211161AD
:10102000009948610099886101B0704782B00190D1
:101030008DF803109DF803000199486002B07047D5
:10104000FFE7FEE7FFE7FEE788B00790069105920D
:10105000079800F0070004900498C0F107000528E5
:1010600003D3FFE70420019004E00498C0F10700D7
:101070000190FFE70198039004980430062803D8F4
:10108000FFE70020009003E0049803380090FFE79A
:101090000098029006980399012202FA01F10139A1
:1010A0000840029B984005999A40013A1140084334
:1010B00008B070477047000080B582B00190019879
:1010C0000090FFF75BFC01460098C9B20A0942F2A2
:1010D0004801C0F60001895CC84002B080BD000034
:1010E00080B582B0019001980090FFF74FFC014657
:1010F00000988A0A42F25801C0F60001895CC84093
:1011000002B080BD80B582B0019001980090FFF7D9
:1011100045FC014600984A0B42F25801C0F6000116
:10112000895CC84002B080BD80B582B000200190CB
:10113000FFF744FC014600910C281FD80099DFE816
:1011400001F0071D1D1D0D1D1D1D131D1D1D18006A
:1011500042F20040C0F2F400019015E047F6400072
:10116000C0F27D1001900FE0082000F011F801900E
:101170000AE00C2000F00CF8019005E042F200407B
:10118000C0F2F4000190FFE7019802B080BD0000BA
:1011900080B58CB00B9000200A9009900890FFF762
:1011A0005BFC09900998079028B1FFE70798B0F514
:1011B000800F06D00BE042F20040C0F2F4000A902B
:1011C0000BE047F64000C0F27D100A9005E042F2C5
:1011D0000040C0F2F4000A90FFE70B9808281BD1EA
:1011E000FFE70A980490FFF72FFC01460498B0FB34
:1011F000F1F00590FFF738FC01460598484306904A
:10120000FFF73AFC014606980A0C022101EB420165
:10121000B0FBF1F0089017E00A980190FFF714FC7A
:1012200001460198B0FBF1F00290FFF71DFC01466A
:10123000029848430390FFF727FC01460398090FE3
:10124000B0FBF1F00890FFE708980CB080BD0000FB
:10125000704700007047000080B582B00020FFF7A3
:1012600051F9FFE7FFF746F908B1FFE7FAE74FF456
:101270008040FFF775FBFFF769FB1020FFF7D4FBF9
:10128000FFF7C0FBFFE7FFF7C7FB012801D0FFE72F
:10129000F9E700200190FFF7FFFB0198FFF70AFC38
:1012A0000198FFF715FC0198FFF720FCFFE7FFF717
:1012B0007DFB08B1FFE7FAE742F20040C0F2F4001C
:1012C0000090FFF71DFB0098FFF72CFC0020FFF7B4
:1012D0001BFC02B080BD00004EF68851CEF200012A
:1012E000086840F4700008607047000080B582B064
:1012F0004FF08040FFF720FC45F28020C2F2000052
:101300000068002827D4FFE745F28020C2F20000E1
:1013100001680139016000680130D8B9FFE74FF07A
:1013200080400190FFF708FC0198FFF70DFC45F2A3
:101330007021C2F2000108684A6845F28421C2F2B5
:1013400000014A60086045F26C21C2F200010020F1
:101350000870FEE0FFE70020C4F202002021FFF742
:10136000BDFA40F60000C4F20200009040F26F3176
:10137000FFF75AF9009842F60011C2F2000109681D
:1013800045F28C22C2F2000292F9002031F81210CC
:1013900042F60412C2F20002126845F28D23C2F234
:1013A000000393F9003032F813201143FFF7C4F91A
:1013B00045F26420C2F20000006845F26821C2F2E2
:1013C00000010968884236DBFFE740F20800C2F2FC
:1013D0000000026845F28C21C2F200010878104436
:1013E000087045F26820C2F20000026845F27820D9
:1013F000C2F200000168891A01600068002819DC47
:10140000FFE740F20C00C2F20000026845F28D21B5
:10141000C2F2000108781044087045F26420C2F25C
:101420000000026845F27821C2F200010868104409
:101430000860FFE735E040F20C00C2F200000268ED
:1014400045F28D21C2F2000108781044087045F27F
:101450006420C2F20000026845F27820C2F2000067
:101460000168891A01600068002819DCFFE740F272
:101470000800C2F20000026845F28C21C2F20001AD
:1014800008781044087045F26820C2F20000026833
:1014900045F27821C2F20001086810440860FFE7B5
:1014A000FFE745F28C20C2F2000090F9000042F6FE
:1014B000FE01C2F200010978884207DBFFE745F22E
:1014C0008C21C2F200010020087016E045F28C2049
:1014D000C2F2000090F90000B0F1FF3F0CDCFFE722
:1014E00042F6FE00C2F200000078013845F28C217D
:1014F000C2F200010870FFE7FFE745F28D20C2F25B
:10150000000090F9000042F6FE01C2F200010978E5
:10151000884207DBFFE745F28D21C2F2000100207F
:10152000087016E045F28D20C2F2000090F900002C
:10153000B0F1FF3F0CDCFFE742F6FE00C2F2000014
:101540000078013845F28D21C2F200010870FFE7F2
:10155000FFE702B080BD000080B582B044F20040D9
:10156000C4F20000FFF7D0FC019045F27C20C2F2EB
:1015700000000068D8B9FFE70198732808D0FFE79A
:101580000198662804D0FFE701986E280FD1FFE785
:10159000019845F27C21C2F200010B6845F26022FD
:1015A000C2F20002D05408680130086036E045F20B
:1015B0007C20C2F200000068B8B1FFE70198302833
:1015C00013DBFFE7019839280FDCFFE7019845F2AC
:1015D0007C21C2F200010B6845F26022C2F20002D7
:1015E000D05408680130086017E045F27C21C2F24F
:1015F000000100200860FFE744F20040C4F2000050
:10160000FFF772FC08B9FFE7F6E744F20040C4F2C6
:1016100000004621FFF70AFDFFE7FFE745F27C20C7
:10162000C2F200000068042861D1FFE745F27C2186
:10163000C2F200010020086045F26020C2F2000002
:1016400000F006F9FFE744F20040C4F20000FFF7A3
:101650004BFC08B9FFE7F6E745F26020C2F2000054
:10166000017844F20040C4F20000FFF7DFFCFFE71E
:1016700044F20040C4F20000FFF736FC08B9FFE76F
:10168000F6E745F26020C2F20000417844F20040E3
:10169000C4F20000FFF7CAFCFFE744F20040C4F2C6
:1016A0000000FFF721FC08B9FFE7F6E745F26020EC
:1016B000C2F20000817844F20040C4F20000FFF75B
:1016C000B5FCFFE744F20040C4F20000FFF70CFC59
:1016D00008B9FFE7F6E745F26020C2F20000C178E2
:1016E00044F20040C4F20000FFF7A0FCFFE702B0A4
:1016F00080BD000080B594B001200490FEF7C4FEC8
:1017000002200F900021009111910C2201920E9263
:1017100012911090072013900020C4F202000EA92D
:10172000FEF7FEFE4FF40030FEF7C0FE07A8029061
:10173000FFF766FC009A019802994FF4165307933D
:10174000089209920A920C920B9044F20040C4F263
:1017500000000390FFF73AFB0398FFF717FB03988D
:10176000FFF71EFB049A42F60810C2F20000006860
:101770001146FFF769FC069006992620059000F0B7
:1017800027F8059800F004F814B080BDFFE7FEE7E5
:1017900081B08DF803009DF9030000280ED4FFE707
:1017A0009DF9031001F01F02012090404A094EF2FA
:1017B0000011CEF2000141F82200FFE701B07047AE
:1017C0004EF60C50CEF200000068C0F302207047C5
:1017D00082B08DF8070000919DF9070000280AD417
:1017E000FFE7009800019DF907104EF20042CEF28B
:1017F000000288540BE0009800019DF8071001F0EA
:101800000F014EF61452CEF200028854FFE702B0E8
:101810007047000083B00290029800F0070000902B
:101820004EF60C51CEF200010868019001984FF677
:10183000FF02104001900198009A40EA0220002225
:10184000C0F2FA52104301900198086003B070474B
:1018500080B584B00390039948788A78C978642366
:10186000584302EB820200EB4200084441F2D041AF
:10187000401A029003980078732801D1FFE744E0F2
:1018800003980078662817D1FFE7029828B9FFE788
:101890004FF08040FFF758F90DE04FF08040019085
:1018A0000021FFF75BFA01980299FFF747FA0198C8
:1018B000FFF75EF9FFE727E0039800786E2810D164
:1018C000FFE7029845F28021C2F2000108604FF064
:1018D000804000900021FFF741FA0098FFF748F997
:1018E00011E0FFE744F20040C4F20000FFF7FCFA09
:1018F00008B9FFE7F6E744F20040C4F200004221D5
:10190000FFF794FBFFE7FFE7FFE704B080BD0000AF
:1019100080B582B001910090012000F037FB009863
:10192000019900F039FA02B080BD000080B58CB09A
:101930000B920A918DF82700002005909DF8270052
:10194000612818DBFFE79DF82700613808900898A8
:1019500040F21002C2F200024FF4C87100FB0120F5
:101960000790089800EB400142F6B000C2F2000078
:101970000844069017E09DF8270041380890089821
:1019800042F60C12C2F200024FF4C87100FB0120B3
:101990000790089800EB400145F2AC10C2F200003D
:1019A00008440690FFE706980599405C04900020E3
:1019B0000390FFE7039863286ADCFFE7079A039820
:1019C0004FF4C87100FB012050B9FFE7079A039854
:1019D0004FF4C87100FB0120043008B9FFE757E05D
:1019E0000798039930F9210000EE100AB8EEC00AFA
:1019F00040F20000C2F2000090ED002A9DED0A1AAC
:101A0000B8EEC11A20EE020A30EE010ABDEEC00A9D
:101A10008DED010A0799039A01EB8201B1F90210D9
:101A200000EE101AB8EEC00A90ED002A9DED0B1AD8
:101A3000B8EEC11A20EE020A30EE010ABDEEC00A6D
:101A40008DED020A039830B1FFE70398013804993D
:101A5000884205D1FFE70198029900F0DBFA04E023
:101A600001980299FFF754FFFFE7039802380499A1
:101A7000884208D1FFE7059801300590069805993E
:101A8000405C0490FFE7FFE703980130039091E783
:101A90000CB080BD80B58CB00B920A9109900A9869
:101AA0000B990891079000200690FFE70998069986
:101AB000405CE0B3FFE709980699405C8DF8170099
:101AC0009DF817000A2806D1FFE70A9807900898A2
:101AD0006438089026E09DF81700202804D1FFE71D
:101AE0000798143007901CE09DF817000799089A92
:101AF000FFF71CFF9DF817006A4601A9116004A9B1
:101B000003AA02AB00F056F89DED021A9DED070AFC
:101B1000B8EEC00A30EE010ABDEEC00A8DED070A2C
:101B2000FFE7FFE7FFE7069801300690BEE70CB03D
:101B300080BD000080B58CB00420FEF7A5FC01201C
:101B40000290079000200390099040F26F310691B7
:101B50000A9002200490089040F60000C4F20200AF
:101B6000019006A90591FEF7DBFCDDF808C0039B98
:101B7000049A05990198CDF81CC009934FF4806C24
:101B8000CDF818C00A930892FEF7CAFC0298FEF737
:101B90007BFC029B039A04980599079309922023E2
:101BA00006930A9208900020C4F20200FEF7B8FCE7
:101BB0000CB080BD8DB0DDF834C08DF833000B91D2
:101BC0000A9209939DF8330061280FDBFFE79DF827
:101BD000330061380890089840F21002C2F2000207
:101BE0004FF4C87100FB012007900EE09DF8330010
:101BF00041380890089842F60C12C2F200024FF4E5
:101C0000C87100FB01200790FFE70798B0F90000BA
:101C100005900798B0F9020004900798B0F9000009
:101C200003900798B0F90200029000200690FFE7A9
:101C30000698B0F5C87F38DAFFE70798069930F9BB
:101C4000210001900798069900EB8100B0F902008D
:101C50000090019820B9FFE7009808B9FFE724E059
:101C600001980599884203DAFFE701980590FFE79C
:101C700000980499884203DAFFE700980490FFE790
:101C800001980399884203DDFFE701980390FFE77D
:101C900000980299884203DDFFE700980290FFE771
:101CA000FFE7069801300690C2E79DED050AB8EE01
:101CB000C00A40F20000C2F2000090ED001A20EECF
:101CC000010A0B9981ED000A9DED040AB8EEC00AE5
:101CD00090ED001A20EE010A0A9981ED000A03999D
:101CE000059A891A00EE101AB8EEC00A90ED001A93
:101CF00020EE010A099981ED000A0299049A891AD5
:101D000000EE101AB8EEC00A90ED001A20EE010A9B
:101D10000D9880ED000A0DB07047000080B586B0C8
:101D20000020029005904FF48040FEF7D1FB4FF069
:101D30008050FEF7BBFB0320FFF76CFDFFF740FD73
:101D4000029A0F21FFF780F901464FF0FF30FFF7AD
:101D50003FFDFFF7CFFCFFF7EDFEFFF77DFA00F048
:101D600037F9C82000F0A4F80120019000F0CCF869
:101D7000019800F00BF90298039004900399049ADB
:101D800042F29000C0F60000FFF784FE029800F0D7
:101D9000FDF8FFE730BFFDE780B582B0019100900C
:101DA00045F27021C2F200010098019A4A60086071
:101DB000009845F28422C2F200021168401A01998B
:101DC0005368C91A014445F26420C2F20000016060
:101DD00000991368C91A019B5268D21A0A4445F245
:101DE0006821C2F200010A6003684FF0FF32B3F1CC
:101DF000FF3F1346C8BF012340F2080CC2F2000C9B
:101E0000CCF800300B68B3F1FF3FC8BF012240F2AD
:101E10000C03C2F200031A600268DCF800C002FB87
:101E20000CF202600A681B685A430A60006809687D
:101E3000884214DBFFE745F26420C2F2000001682B
:101E400001EBD171491045F27822C2F20002116013
:101E5000006845F28021C2F20001086013E045F2FB
:101E60006820C2F20000016801EBD171491045F20F
:101E70007822C2F200021160006845F28021C2F2AD
:101E800000010860FFE745F26C21C2F20001012069
:101E900008704FF08040FEF76BFEFFE745F26C20C4
:101EA000C2F20000007808B1FFE7F7E702B080BD9A
:101EB00080B582B001900198002805DCFFE74FF063
:101EC0008040FEF741FE1CE0019841F289318842D2
:101ED00004DBFFE741F288300190FFE74FF08040DC
:101EE00000900021FEF73AFF0098019A42F210712B
:101EF00091FBF2F10139FEF721FF0098FEF738FE61
:101F0000FFE702B080BD000081B08DF803009DF8AE
:101F10000300C8B9FFE742F6FE01C2F20001042047
:101F2000087042F60011C2F2000142F26000C0F6F1
:101F30000000086042F60411C2F2000142F268009B
:101F4000C0F6000008601EE09DF80300012819D1CA
:101F5000FFE742F6FE01C2F200010820087042F6D7
:101F60000011C2F2000142F27000C0F600000860E9
:101F700042F60411C2F2000142F28000C0F60000F5
:101F80000860FFE7FFE701B07047000080B582B04E
:101F90008DF807009DF8070048B9FFE740F60000FC
:101FA000C4F202004FF48061FEF73EFB0EE09DF8A4
:101FB0000700012809D1FFE740F60000C4F2020043
:101FC0004FF48061FEF7B8FBFFE7FFE702B080BD8A
:101FD00080B588B00120FEF769FA40F23F60ADF8A5
:101FE0000C00C72005904FF08040019003A9FEF738
:101FF000DDFD0198FEF7B2FD0198FEF7C3FD1C2040
:1020000002900021FFF7E4FB0298FFF7C1FB08B044
:1020100080BD000080B582B0019100900020FFF7E4
:10202000B5FF00980199FFF7B7FE02B080BDF1EE51
:10203000100A4FF6FF71C0F2C03120EA010040F0F3
:102040004070E1EE100A7047000000000000000040
:10205000010203040607080900000000010203044E
:10206000030006000C00090060004001000320028C
:10207000010003000200060004000C000800090033
:102080002000600040004001000100030002200227
:102090004D6563686174726F6E696B00C0200008E3
:1020A000000000200052000028020008E82E00086E
:1020B0000052002090060000880200080000000086
:1020C000150AD7A33D1324F4320129041263143BEB
:1020D00001401C5601290412121437010E141B0171
:1020E000141C0201200412511424016A1449016DC8
:1020F0001C2801882F1AA10412CA141701E82A2EDD
:102100003B01FF01561203148F013414D001571400
:102110005002571483023A14A202181482020114C6
:10212000F5010114A2010F142D012312FB12351425
:102130003501581C710170041281143B017312F0B7
:10214000123E12A71A2704121B12B6124D12E512E4
:10215000D303FF230101411265144701571C670196
:102160003D041212143601081409011B12DB1A482F
:102170000412A6140701DE03FF2E01016D125D1487
:102180004901491C6201310412101431010A14067C
:10219000010B12F8121412E41A2B04126F147B01B3
:1021A000A1145102AE14B4029B144A0285147501A5
:1021B00085143F018B12CF12A002FF8A0152120E2A
:1021C000142101541A45041C670138041A170C1213
:1021D0000E141D013C12F2127812FC12CB03FF22E6
:1021E00001016D12141475014914B5016D142E020C
:1021F0006D144D026714710256147D02321C500298
:10220000191812101A28041410011312B4122612ED
:10221000521247123612601A53041A720A12D91255
:1022200010141B01461C0301740412CC03FF2E0181
:102230000141125F143A01481C5F012C0412111471
:1022400036010D1411010F12F71A1F04125B1C3412
:1022500001761812771A4A041438017012B5125711
:102260001225123314FBFF21121112211234124CC9
:10227000127F12E603FF2E01014916F3FF8E012F94
:1022800014D20164145202641470025B1495024764
:1022900014A202261485020D1424020414CB010496
:1022A00014B1010F142E012612E512351416016027
:1022B0001C5C017C04128E141D01B3140101F70390
:1022C000FF1F0101491212145301101A3F04142078
:1022D000013A12F6126314020192142701171481B5
:1022E000011C03FF86010171120F145F01101A4ACD
:1022F0000412FE14EEFF2C1008C6FFF1FFBDFF050F
:1023000014E9FF7912691414010B1A871C03FF8C5E
:10231000010169120C1469013414B70160144302FD
:10232000601469024B148002281457020A14CE016B
:102330000A148B01131411012412DF123514210128
:102340005E1C710175041281145B01681438013739
:10235000141A013E1A0F0C12F6129512ED12C21247
:10236000FE12F403FF2901013D120E146101351420
:10237000D70153146B025314A8023A14CC021A1456
:1023800098020D14DC010D14760119129512251214
:10239000383A280402FF610162121814580110141F
:1023A0002C01131AEC0C12EC1233143E015214637C
:1023B0000162144C01611C080188081AA70412C4A8
:1023C000141C01E5000BFF0601080112011D012389
:1023D000010159121714580110142B011312EC1299
:1023E0001912FA123714390157144C016E143601C0
:1023F0008F1C0601AA0412CB141A01E103FF2E015F
:10240000016512461451013B1C5C012704120F1494
:102410001D011E12EF1A3F0412561435014E1457B7
:10242000014514520142143D015B141901A403FF3C
:1024300022010161120C1456011412EE121D14CE69
:10244000FF1E14D5FF2D14120160146701841A3E7B
:102450000412EF125312BD124312C81A6A2412D783
:1024600003FF23010161125F143A0148145D011C4E
:10247000145201121439010D1407011712F7123A00
:10248000140F017214530177144F016312B81256DE
:102490001217126E14E8FF8D121112701286127844
:1024A00012A812B712F212E903FF2E01014D121702
:1024B00014580110142E011112E4121112ED122DF4
:1024C000143B014C14540162144701851C2A019AE3
:1024D000041AB12001FF0169125E14470144146718
:1024E000012A145B01101A36041424013312ED1270
:1024F0004312BC1238129E1A2A04122112AA125236
:1025000012DB12C903FF270101611228148E021A7F
:10251000142002101479011014350118129312239B
:1025200012491226124C1225127916DFFFFE010CF9
:102530001CFF01610401FF0165121B145C010E1AEE
:10254000240412F81A2C04125D143501741462016B
:102550006C1431018412F61AB00412E303FF2E0149
:102560000169120E1463010D14540111142B01247E
:1025700012EA1A3504125C14330169146201683CD2
:102580006D01550414520175142C0198142201B7E1
:1025900003FF2901015D1214146301101A310414A0
:1025A0001A011712F6122812EA12411409015914DD
:1025B0005801571A4B04142A015F12F0127912DBEA
:1025C000129C12FF12B1145C01B1146801AD1C6DB4
:1025D00001A42412A4144401C6142901EB07FF2707
:1025E0000104012901014114F7FFC7121B14060160
:1025F0004F10085F01F3FF600111142A015E12F60B
:102600001A8A0412BF03FF2E01017112181454011B
:102610000F142B011812F71A28041254142E016DEE
:102620001463016F14110165126D12431CFBFF2A24
:10263000041228123D124E127F128E12C812C703C6
:10264000FF070101591210142E0129144C01581CC6
:102650006F0170041278145101631424013112FDCA
:10266000123412FB124212FC126B12EE127E1ABCD2
:102670000412A112601A4C18122D12221A430412CD
:1026800063128C12D81AE94401FF0149220D22136A
:1026900022083A0F06190C3A110313050813070A0A
:1026A00022143A0B243A0A09190322103A0909198B
:1026B0001E19093A0C332B02072419361204136031
:1026C000201B0868043206128514E3FF7E14B8FF4D
:1026D0007614B3FF6F14F4FF74124312881AC90200
:1026E0001808F2012B01C5025B04100897011402BF
:1026F000BB01ED100ACF01DAFFD90174FF391402D2
:10270000011E14080173000BFF1B013B012E010485
:10271000023801014912B2142902B9145302C61A2F
:102720006904142102C5143E01C512D612C4123622
:1027300012CD1CA8FFDC0412B612531274146201ED
:102740005E141002B21818D5024201D5028E016A39
:1027500002770115021401A301A6018F016346143B
:10276000450241100ACA01BBFF200173FFB7147371
:10277000FF8114D8FF9E12420009FF1C010B01E0EB
:1027800001D0010125100E570166026C017E022165
:1027900001D602CC14AB026A14FA01361A020412F2
:1027A0004712B8000AFFC3FF3E01F9FFFD01DF0138
:1027B0006A12B2142902B9144F02C61A120414CABA
:1027C00001C51A390412D212BC1A361C1CA8FFC14A
:1027D0000412A5125312701463015E141402B71090
:1027E00012D5024901D502FB013F0225026B010609
:1027F00002AD168701D9FFDC3C68FF660414D4FFE4
:10280000D712A30009FFA50182015502060201317A
:102810001816570166025F014802630178025D01E4
:10282000A9023401D6020804129E1483027E142BDE
:1028300002AC1ED9011101AE0414A201C01453014F
:102840005612CF1236125C1247120812991CC3FF9F
:10285000DD04146F012604FFEB01C4014612BC1411
:102860004502C3147302D01A9204148302C914D00F
:1028700001C01AC81814E7FFC214ACFFC514D9FF71
:10288000A11288126C146A013F142A0230147602D5
:10289000901024CE021A01D9026E01DD02E801EF88
:1028A000028401310193012E01A4012A018B012927
:1028B000010301260175141F013603FF17010131C1
:1028C00018125701660260014B0263017402400155
:1028D000D602050412911462025014C20136140B80
:1028E0000145128E1283123B1AB604142601CC1035
:1028F000107A019F0197010802980198017801B2AE
:10290000100A4401CEFF0B0149FFF02904000AFF21
:1029100076FF2401FBFF780188013A124912F41274
:102920001F12F8122D140301D0100C1A01A5012951
:102930000126022C01AF14ADFFAA1491FFA214A628
:10294000FFA3120312A3122E12A512D412AA14B5B9
:1029500001B1147702B9100EBA02CB01D302CA0139
:102960000A02CC01E20009FFD101D7FFD90174FFAF
:10297000014112AF1496FFA214BEFFA3122B12A3A3
:10298000125C12A7144801AF145502B914BA020C14
:102990001008A302F8FFA7023414B402C1100CC23D
:1029A000024E01C902EBFF9EFF2914ABFFBC07FFDB
:1029B000B9FF4E01C0FF015112C514C602C91A4029
:1029C0000414EC01C4141101B31228129814A4FFCA
:1029D0006F1C53FF5904124A1494FF5712061293A6
:1029E00012DD12F31497014514AB022714AE023620
:1029F00014B802C407FFCD023B01D202014D12B44C
:102A000014AAFFAD147FFFA5147AFFA214BBFFA385
:102A1000120A12A5126812AC144D01B6144402C277
:102A20001014E6021B02E80240020D032602CC024B
:102A30008A011402D51491017014560175162201F1
:102A40000A019405FF0302E4FF0149100EE801E1C9
:102A5000FFC201D2FF4A01ACFFC71C8FFF8B0412DB
:102A60007D14A2FF831249129A145701B51466020D
:102A7000C614EE02C214E802B203FFAF02016112F3
:102A800081149DFF7914CCFF73122D12711AA604C4
:102A900012C8128014AC01B61016A5020601EE028F
:102AA0003A01BF026301090274012A01770180140F
:102AB0007A01810024FFAD0157010402460252024F
:102AC0008D0294023B02B8021701BE02EBFFBF0267
:102AD000B5FFB602EFFFAF0222013A125E149E026A
:102AE0006514C7026E14E902701AD708141702643D
:102AF00014060158120E125414ACFF68120C12A9DD
:102B0000180C0F01070125027301CD02AC04100857
:102B1000EF01E101090281000CFF0D02BFFF0A0273
:102B2000CAFFFF0118014A10124D013E025901333C
:102B300002490197021501AE02A51460024D144A24
:102B4000014D12BA1295100AF2FF0601C3FF980157
:102B50000B000DFF09022F010D02FA017B01EE02AD
:102B6000015D12B2142902B9145302C61A69041481
:102B70002102C5143E01C512D612C4123612CD1C54
:102B8000A8FFDC0412B6125312741462015E141012
:102B900002B21014D5023501D502BC017E02DC015F
:102BA0000402B6015C01CB02FFA1014A10124801E8
:102BB000AF015C01C3014A0181020901AE02A21406
:102BC00060024D144A014D12BA1295100AF2FF0626
:102BD00001C3FF98010B100E09022F010D02FA012B
:102BE0007B01EE02A614FAFFF41226180A9801D50A
:102BF000FF40027BFF74040009FFB302A2FFC3027F
:102C0000D4FF014112B2142902B9145302C61A6941
:102C100004142102C5143E01C512D612C412361284
:102C2000CD1CA8FFDC0412B6125312741462015EAC
:102C3000141002BF1014D5026A01D502CC01310272
:102C4000A701B00121012F019512E8126012DC12D8
:102C50009112A114480152140C020905FF5A02E70F
:102C6000FF013510164D01D0015601B0015901E99F
:102C7000014B0178020E01DC02DE14DC0271144B00
:102C8000025014B3017A1632010301E41C6C019660
:102C9000041255162A01EFFFDE14D3FFA214F1FF30
:102CA0009202FF740152180C1B01E302220111036E
:102CB0002F013004101A210327014A021C010801C8
:102CC0001601F5FF1C01ACFF2601F0FF1401EC1208
:102CD000D61408026114AA023214A202BE000BFF2D
:102CE000A702A701AD023802AA020151124E14A197
:102CF000024414C2023414EF013012DF12511203E5
:102D0000129214CAFFF3120E180E4B010B01790137
:102D10002D028301E0027B041008700127026F017D
:102D2000FA05FF7F01F1FF0159128F146E0288141A
:102D3000990280149E0279145D027E140E028E1494
:102D40008401BF12501E020174FF2704146A01257A
:102D5000000DFFA2014C01CA015F02D901C50201A9
:102D60005D1285147E0280149B027C1CAB027804E9
:102D7000126F1486026B14700263140E02601481C9
:102D80000160145401681291128B14B9FFC6137AB2
:102D9000FF1F01ABFF350165161E4A016001FA04F1
:102DA000180E12025E0124025801F30156018D042F
:102DB0001675015E01AE10108501D6FFC80197FFA0
:102DC0001502E8FF4A02FB0011FF5B02F5015B02FE
:102DD0001E02590287025202CD020119128214907A
:102DE000027A149D026514C70276148602F61660F4
:102DF000019D0146161202BAFF5D14AEFFF012CB20
:102E00000009FF93010902E501A8020165125814A7
:102E100076024D1437023F14A901361A210412B468
:102E2000128B124F12ED129F10145901B1019A0129
:102E3000A702A4019D029201A90160017A16240152
:102E400087FFFD1449FFF01A5804100A77FF240188
:102E5000FBFF78018804FFB001C40146126F149390
:102E600002D91808B4027101D202AB041010FF019C
:102E7000B70216027702E601DF013801EA1280127A
:102E800019125414EAFF4E1CE5FF5504126014EDAC
:102E9000FF7D1CF3FFB9040011FF9501A0FF2D0277
:102EA0007BFF620288FF8F02C1FF0145130C1122D4
:102EB0001A22092217221213101722151009050EC3
:102EC00013060B0F0B10130811220B19121A112ADB
:102ED0004906121322163A0F033A0D15221D2B062E
:082EE0000A3C19036100000027
:04000005080001C529
:00000001FF
