:020000040800F2
:10000000B006002065020008D90F00081904000896
:10001000D50F000811040008211700080000000097
:10002000000000000000000000000000E5110008D2
:10003000150400080000000049100008E91100083C
:100040007F0200087F0200087F0200087F0200088C
:100050007F0200087F0200087F0200087F0200087C
:100060007F0200087F0200087F0200087F0200086C
:100070007F0200087F0200087F0200087F0200085C
:100080007F0200087F0200087F0200087F0200084C
:100090007F0200087F0200087F0200087F0200083C
:1000A0007F0200087F0200087F0200087F0200082C
:1000B000811200087F0200087F0200087F0200080A
:1000C0007F0200087F0200087F0200087F0200080C
:1000D0007F0200087F020008ED1400087F0200087C
:1000E0007F0200087F0200087F0200087F020008EC
:1000F0007F0200087F0200087F0200087F020008DC
:100100007F0200087F0200087F0200087F020008CB
:100110007F0200087F0200087F0200087F020008BB
:100120007F0200087F0200087F0200087F020008AB
:100130007F02000800000000000000007F020008AD
:100140007F0200087F0200087F0200087F0200088B
:100150007F0200087F0200087F0200087F0200087B
:100160007F0200087F0200087F0200087F0200086B
:100170007F0200087F0200087F02000800000000E4
:10018000000000007F0200080000000000000000E6
:100190007F02000800000000000000007F0200084D
:1001A0000000000000000000000000007F020008C6
:1001B0007F0200087F0200087F0200087F0200081B
:1001C0007F02000800F002F800F03CF80AA090E876
:1001D000000C82448344AAF10107DA4501D100F002
:1001E00031F8AFF2090EBAE80F0013F0010F18BF93
:1001F000FB1A43F0010318472C1B00004C1B0000A6
:10020000103A24BF78C878C1FAD8520724BF30C842
:1002100030C144BF04680C60704700000023002414
:1002200000250026103A28BF78C1FBD8520728BF06
:1002300030C148BF0B6070471FB501F042FD1FBDC4
:1002400010B510BD00F0A9F81146FFF7F5FF01F059
:1002500069FB00F0C7F803B4FFF7F2FF03BC00F03E
:10026000CFF800000948804709480047FEE7FEE74D
:10027000FEE7FEE7FEE7FEE7FEE7FEE7FEE7FEE756
:1002800004480549054A064B704700006D120008F6
:10029000C5010008B0000020B0060020B002002018
:1002A000B002002053EA020C00F069802DE9F04B07
:1002B0004FF00006002B1FBFB3FA83F503FA05F4D5
:1002C00024FA05F65E4012BF1643B2FA82F502FA2E
:1002D00005F4C5F120051EBF22FA05FC44EA0C0412
:1002E000203556EA044C4FEA144418BF641C4FF002
:1002F00000084FF00009904271EB030C39D300293C
:1003000019BFB1FA81F701FA07F6B0FA80F700FADF
:1003100007F6C7F120071EBF20FA07FC46EA0C06C5
:100320002037B6FBF4FCA7EB0507103F07F01F0BC7
:10033000CBF120062CFA06F60CFA0BFB44BFB346B1
:100340000026202FA4BF5E464FF0000B5BEA060C90
:1003500008BF4FF0010B19EB0B0948EB0608ABFB8C
:10036000027C06FB02CC0BFB03CCC01B71EB0C0127
:10037000C1E70B46024641464846BDE8F08B13B53F
:10038000084318BF4FF0FF300146AFF30080BDE8CF
:100390001C407047704770477047754600F02CF856
:1003A000AE4605006946534620F00700854618B062
:1003B00020B5FFF765FFBDE820404FF000064FF085
:1003C00000074FF000084FF0000BAC46ACE8C00946
:1003D000ACE8C009ACE8C009ACE8C00921F00701ED
:1003E0008D46704710B50446AFF300802046BDE847
:1003F0001040FFF730BF0000004870472000002089
:1004000001491820ABBEFEE726000200704700003D
:10041000FFE7FEE770470000FFE7FEE782B00190CC
:10042000019A43F63000C4F20200016811430160F2
:100430000068019908400090009802B070470000E1
:1004400082B00190019A43F64000C4F202000168B4
:10045000114301600068019908400090009802B0C3
:100460007047000082B00190019A43F64400C4F244
:100470000200016811430160006801990840009082
:10048000009802B07047000043F60040C4F202003A
:10049000006800F00F00704781B0009043F6004103
:1004A000C4F20201086820F00F00009A10430860AF
:1004B00001B0704780B588B0039002910020019090
:1004C00000900298006890FAA0F00690069820B973
:1004D000FFE720208DF81F0005E00698B0FA80F0B5
:1004E0008DF81F00FFE79DF81F000190FFE70298BD
:1004F00000680199C84000285DD0FFE702980068B5
:10050000019A0121914008400090009800284ED0A7
:10051000FFE702984068012805D0FFE7029840688D
:1005200002280DD1FFE703980099029A926800F023
:1005300061F903980099029AD26800F00DF9FFE77B
:1005400003980099029A126900F016F9029840681F
:10055000022825D1FFE7009890FAA0F004900498B3
:1005600020B9FFE720208DF8170005E00498B0FAC5
:1005700080F08DF81700FFE79DF81700072807D8CF
:10058000FFE703980099029A526900F021F806E00B
:1005900003980099029A526900F058F8FFE7FFE7C4
:1005A00003980099029A526800F098F8FFE70198C2
:1005B000013001909BE7002008B080BD82B001901F
:1005C0000091009800040199886102B07047000012
:1005D0008AB00590049103920598006A02900498ED
:1005E00090FAA0F00890089820B9FFE720208DF835
:1005F000270005E00898B0FA80F08DF82700FFE7A3
:1006000002989DF827108A000F219140884300909E
:1006100003980190049890FAA0F00690069820B9EB
:10062000FFE720208DF81F0005E00698B0FA80F063
:100630008DF81F00FFE7009801999DF81F20920098
:1006400091400843059908620AB070478AB0059046
:10065000049103920598406A02900498000A90FA67
:10066000A0F00890089820B9FFE720208DF8270017
:1006700005E00898B0FA80F08DF82700FFE70298AF
:100680009DF827108A000F2191408843009003981D
:1006900001900498000A90FAA0F00690069820B9FC
:1006A000FFE720208DF81F0005E00698B0FA80F0E3
:1006B0008DF81F00FFE7009801999DF81F20920018
:1006C00091400843059948620AB0704782B0019092
:1006D000009100980199886102B070478AB0059036
:1006E00004910392059800680290049890FAA0F093
:1006F0000890089820B9FFE720208DF8270005E032
:100700000898B0FA80F08DF82700FFE702989DF86E
:1007100027104A00032191408843009003980190DC
:10072000049890FAA0F00690069820B9FFE72020E0
:100730008DF81F0005E00698B0FA80F08DF81F00D4
:10074000FFE7009801999DF81F205200914008434F
:10075000059908600AB0704783B002900191009239
:100760000298406801998843009A514308430299CE
:10077000486003B0704700008AB00590049103926E
:100780000598C0680290049890FAA0F00890089824
:1007900020B9FFE720208DF8270005E00898B0FA7F
:1007A00080F08DF82700FFE702989DF827104A0097
:1007B000032191408843009003980190049890FA97
:1007C000A0F00690069820B9FFE720208DF81F00C2
:1007D00005E00698B0FA80F08DF81F00FFE700985A
:1007E00001999DF81F205200914008430599C86067
:1007F0000AB070478AB0059004910392059880680A
:100800000290049890FAA0F00890089820B9FFE7A9
:1008100020208DF8270005E00898B0FA80F08DF8C8
:100820002700FFE702989DF827104A000321914016
:100830008843009003980190049890FAA0F00690E5
:10084000069820B9FFE720208DF81F0005E00698E4
:10085000B0FA80F08DF81F00FFE7009801999DF82D
:100860001F20520091400843059988600AB07047E4
:1008700083B002900191029840690090009A01981B
:1008800002EA0001904340EA01400299886103B006
:100890007047000080B582B0019001984FF47A71E2
:1008A00000F002F802B080BD82B001900091019882
:1008B0000099B0FBF1F001384EF21401CEF20001C4
:1008C00008604EF21801CEF20001002008604EF2DE
:1008D0001001CEF200010520086002B07047000050
:1008E00047F20001C4F20001086820F4803008607B
:1008F0007047000081B0009047F20001C4F200018F
:10090000086820F44040009A1043086001B0704726
:1009100043F60800C4F20200006800F0F0007047DF
:1009200043F60800C4F20200006800F4E05070478B
:1009300043F60800C4F20200006800F4604070470B
:1009400043F60800C4F20200006800F00C00704793
:1009500043F60800C4F20200006800F00C00704783
:1009600080B582B0019000F0A9FB01990860019860
:10097000006800F06BFB019948600198406800F046
:1009800079FB019988600198406800F085FB019926
:10099000C86002B080BD000043F60001C4F202014D
:1009A000086840F0010008607047000043F600004E
:1009B000C4F202000068C0F34000704781B00090AC
:1009C00043F60001C4F20201086820F0F800009A22
:1009D00040EAC200086001B07047000043F604001E
:1009E000C4F20200006800F03F00704743F60400C4
:1009F000C4F20200006800F48000704743F604006F
:100A0000C4F202000068C0F38810704743F6040087
:100A1000C4F20200006800F44030704743F604005E
:100A2000C4F20200006800F0E040704781B000901E
:100A300043F60801C4F20201086820F0F000009AB1
:100A40001043086001B0704781B0009043F6080180
:100A5000C4F20201086820F4E050009A10430860D4
:100A600001B0704781B0009043F60801C4F2020162
:100A7000086820F46040009A1043086001B0704795
:100A800081B0009043F60801C4F20201086820F02A
:100A90000300009A1043086001B0704781B00090D5
:100AA00043F68C01C4F20201086820F08070009ABD
:100AB0001043086001B0704781B00090009840F288
:100AC0000001C2F20001086001B0704781B00090DF
:100AD00000996FF00100086101B0704781B000908B
:100AE0000099086820F00100086001B0704700001C
:100AF00081B000900099086840F08000086001B063
:100B00007047000081B000900099086840F0010033
:100B1000086001B07047000081B000900099C8687B
:100B200040F00100C86001B07047000081B0009043
:100B30000099486940F00100486101B07047000029
:100B400080B584B0039002910398006801900398E7
:100B50000021C4F20101884225D0FFE70398B0F1DB
:100B6000804F20D0FFE7039840F20041C4F200011B
:100B7000884218D0FFE7039840F60001C4F2000154
:100B8000884210D0FFE7039840F60041C4F200010C
:100B9000884208D0FFE7039840F20041C4F2010107
:100BA000884208D1FFE7019820F070000299496857
:100BB00008430190FFE703980021C4F20101884235
:100BC00055D0FFE70398B0F1804F50D0FFE703986E
:100BD00040F20041C4F20001884248D0FFE7039888
:100BE00040F60001C4F20001884240D0FFE70398BC
:100BF00040F60041C4F20001884238D0FFE7039874
:100C000040F20041C4F20101884230D0FFE703986E
:100C100044F20001C4F20101884228D0FFE70398A2
:100C200044F20041C4F20101884220D0FFE703985A
:100C300044F60001C4F20101884218D0FFE703988E
:100C400041F60001C4F20001884210D0FFE703988A
:100C500041F60041C4F20001884208D0FFE7039842
:100C600042F20001C4F20001884208D1FFE7019876
:100C700020F440700299C96808430190FFE7019889
:100C80000399086003980299896800F029F803988D
:100C90000299098800F034F803980021C4F2010198
:100CA000884208D0FFE7039840F20041C4F20101F6
:100CB000884206D1FFE703980299096900F028F8F5
:100CC000FFE70398FFF732FF002004B080BD00006B
:100CD00082B00190009100980199C86202B07047FB
:100CE00082B00190009100980199C86202B07047EB
:100CF00082B00190009100980199486202B070475B
:100D000082B00190009100980199886202B070470A
:100D100082B00190009100980199086302B0704779
:100D200081B000900099C86840F40050C86001B0DC
:100D30007047000082B00190FFE7FFE7019850E89C
:100D4000030F40F020000090FFE70099019A42E86D
:100D500003100028F2D1FFE7FFE702B07047000060
:100D600080B588B00790069101208DF8170000200B
:100D70000490079800F08AF800287AD1FFE70798D6
:100D8000C06849F20C618843069A5168D2F80CC0D9
:100D90001369926941EA0C01194311430843079909
:100DA000C86007980699896800F0E6F807980699E0
:100DB000496900F0D3F86846FFF7D2FD079841F281
:100DC0000001C4F20101884203D1FFE703980490B7
:100DD0003CE0079844F20041C4F20001884203D18C
:100DE000FFE70298049030E0079844F60001C4F24F
:100DF0000001884203D1FFE70298049024E007989D
:100E000041F20041C4F20101884203D1FFE7039897
:100E1000049018E0079844F60041C4F200018842AB
:100E200003D1FFE7029804900CE0079845F2000117
:100E3000C4F20001884203D1FFE70298049000E069
:100E4000FFE7FFE7FFE7FFE7FFE7FFE7049878B179
:100E5000FFE70698006858B1FFE700208DF81700FB
:100E600007980499069A1368926900F01FF8FFE743
:100E7000FFE79DF8170008B080BD000081B000902A
:100E800000980068C0B2C00901B0704781B00090FE
:100E90000098C068C0F3403001B0704781B0009046
:100EA00000984068C0B201B07047000080B584B0BF
:100EB00003900291019200930198B0F5004F26D162
:100EC000FFE702981921A0FB0101009B5A00DB0FEC
:100ED000FFF7E8F9844648F21F52C5F2EB12ACFB6B
:100EE000021041090801642301FB13C3322101EB05
:100EF000C301A1FB0221F82202EA511200EB4200D9
:100F0000C1F34211084480B20399886024E002983A
:100F10001921A0FB0101009B9A009B0FFFF7C2F96A
:100F2000034648F21F51C5F2EB11A3FB0120420911
:100F3000642002FB1033322000EB0310A0FB010100
:100F4000F02000EA511000EB0210C1F343110844F5
:100F500080B203998860FFE704B080BD82B0019041
:100F600000910198406920F440700099084301996C
:100F7000486102B07047000082B001900091019872
:100F8000006920F44050009908430199086102B0BB
:100F90007047000081B0009000994FF4165008602F
:100FA000009900204860009988600099C860009A04
:100FB0000C211161009948610099886101B0704766
:100FC00082B001908DF803109DF8030001994860EC
:100FD00002B07047FFE7FEE7FFE7FEE788B0079043
:100FE00006910592079800F0070004900498C0F15C
:100FF0000700052803D3FFE70420019004E00498CC
:10100000C0F107000190FFE70198039004980430B5
:10101000062803D8FFE70020009003E00498033877
:101020000090FFE70098029006980399012202FAC7
:1010300001F101390840029B984005999A40013A14
:101040001140084308B070477047000080B582B077
:10105000019001980090FFF75BFC01460098C9B22F
:101060000A0941F6DC41C0F60001895CC84002B0C3
:1010700080BD000080B582B0019001980090FFF71C
:101080004FFC014600988A0A41F6EC41C0F6000187
:10109000895CC84002B080BD80B582B001900198E3
:1010A0000090FFF745FC014600984A0B41F6EC41E1
:1010B000C0F60001895CC84002B080BD80B582B036
:1010C00000200190FFF744FC014600910C281FD836
:1010D0000099DFE801F0071D1D1D0D1D1D1D131DCD
:1010E0001D1D180042F20040C0F2F400019015E00E
:1010F00047F64000C0F27D1001900FE0082000F09C
:1011000011F801900AE00C2000F00CF8019005E0C5
:1011100042F20040C0F2F4000190FFE7019802B0F3
:1011200080BD000080B58CB00B9000200A90099023
:101130000890FFF75BFC09900998079028B1FFE73A
:101140000798B0F5800F06D00BE042F20040C0F2E5
:10115000F4000A900BE047F64000C0F27D100A90C0
:1011600005E042F20040C0F2F4000A90FFE70B985D
:1011700008281BD1FFE70A980490FFF72FFC0146CF
:101180000498B0FBF1F00590FFF738FC0146059894
:1011900048430690FFF73AFC014606980A0C0221E4
:1011A00001EB4201B0FBF1F0089017E00A980190C2
:1011B000FFF714FC01460198B0FBF1F00290FFF735
:1011C0001DFC0146029848430390FFF727FC0146A7
:1011D0000398090FB0FBF1F00890FFE708980CB0F6
:1011E00080BD0000704700007047000080B582B0ED
:1011F0000020FFF751F9FFE7FFF746F908B1FFE7D5
:10120000FAE74FF48040FFF775FBFFF769FB10200A
:10121000FFF7D4FBFFF7C0FBFFE7FFF7C7FB012891
:1012200001D0FFE7F9E700200190FFF7FFFB0198ED
:10123000FFF70AFC0198FFF715FC0198FFF720FC67
:10124000FFE7FFF77DFB08B1FFE7FAE742F2004056
:10125000C0F2F4000090FFF71DFB0098FFF72CFC94
:101260000020FFF71BFC02B080BD00004EF6885145
:10127000CEF20001086840F470000860704700007A
:1012800080B582B04FF08040FFF720FC40F2A00014
:10129000C2F200000068002827D4FFE740F2A00057
:1012A000C2F2000001680139016000680130D8B95C
:1012B000FFE74FF080400190FFF708FC0198FFF72F
:1012C0000DFC40F29001C2F2000108684A6840F249
:1012D000A401C2F200014A60086040F28C01C2F22F
:1012E000000100200870FEE0FFE70020C4F20200C9
:1012F0002021FFF7BDFA40F60000C4F20200009082
:1013000040F26F31FFF75AF9009840F21001C2F233
:101310000001096840F2AC02C2F2000292F900201A
:1013200031F8121040F21402C2F20002126840F2C8
:10133000AD03C2F2000393F9003032F813201143D9
:10134000FFF7C4F940F28400C2F20000006840F2E6
:101350008801C2F200010968884236DBFFE740F2EB
:101360000400C2F20000026840F2AC01C2F20001C7
:1013700008781044087040F28800C2F20000026849
:1013800040F29800C2F200000168891A016000680A
:10139000002819DCFFE740F20800C2F200000268F2
:1013A00040F2AD01C2F2000108781044087040F22A
:1013B0008400C2F20000026840F29801C2F200010B
:1013C000086810440860FFE735E040F20800C2F208
:1013D0000000026840F2AD01C2F20001087810443A
:1013E000087040F28400C2F20000026840F29800E7
:1013F000C2F200000168891A01600068002819DC47
:10140000FFE740F20400C2F20000026840F2AC01C3
:10141000C2F2000108781044087040F28800C2F25D
:101420000000026840F29801C2F20001086810440E
:101430000860FFE7FFE740F2AC00C2F2000090F95D
:10144000000040F20C01C2F200010978884207DB7B
:10145000FFE740F2AC01C2F200010020087016E084
:1014600040F2AC00C2F2000090F90000B0F1FF3F82
:101470000CDCFFE740F20C00C2F2000000780138FB
:1014800040F2AC01C2F200010870FFE7FFE740F252
:10149000AD00C2F2000090F9000040F20C01C2F26F
:1014A00000010978884207DBFFE740F2AD01C2F294
:1014B00000010020087016E040F2AD00C2F200000A
:1014C00090F90000B0F1FF3F0CDCFFE740F20C00A8
:1014D000C2F200000078013840F2AD01C2F2000112
:1014E0000870FFE7FFE702B080BD000080B582B062
:1014F00044F20040C4F20000FFF7D0FC019040F23B
:101500009C00C2F200000068D8B9FFE70198732878
:1015100008D0FFE70198662804D0FFE701986E28FD
:101520000FD1FFE7019840F29C01C2F200010B6865
:1015300040F28002C2F20002D05408680130086014
:1015400036E040F29C00C2F200000068B8B1FFE74C
:101550000198302813DBFFE7019839280FDCFFE7FB
:10156000019840F29C01C2F200010B6840F2800237
:10157000C2F20002D05408680130086017E040F25F
:101580009C01C2F2000100200860FFE744F2004025
:10159000C4F20000FFF772FC08B9FFE7F6E744F277
:1015A0000040C4F200004621FFF70AFDFFE7FFE715
:1015B00040F29C00C2F200000068042861D1FFE7FD
:1015C00040F29C01C2F200010020086040F280005D
:1015D000C2F2000000F006F9FFE744F20040C4F256
:1015E0000000FFF74BFC08B9FFE7F6E740F2800088
:1015F000C2F20000017844F20040C4F20000FFF79C
:10160000DFFCFFE744F20040C4F20000FFF736FCC5
:1016100008B9FFE7F6E740F28000C2F20000417827
:1016200044F20040C4F20000FFF7CAFCFFE744F2B6
:101630000040C4F20000FFF721FC08B9FFE7F6E71D
:1016400040F28000C2F20000817844F20040C4F20F
:101650000000FFF7B5FCFFE744F20040C4F20000D1
:10166000FFF70CFC08B9FFE7F6E740F28000C2F292
:101670000000C17844F20040C4F20000FFF7A0FC73
:10168000FFE702B080BD000080B594B00120049057
:10169000FEF7C4FE02200F900021009111910C2250
:1016A00001920E9212911090072013900020C4F224
:1016B00002000EA9FEF7FEFE4FF40030FEF7C0FE5A
:1016C00007A80290FFF766FC009A019802994FF470
:1016D00016530793089209920A920C920B9044F2C7
:1016E0000040C4F200000390FFF73AFB0398FFF7B5
:1016F00017FB0398FFF71EFB049A40F21800C2F292
:10170000000000681146FFF769FC06900699262044
:10171000059000F027F8059800F004F814B080BD9B
:10172000FFE7FEE781B08DF803009DF90300002874
:101730000ED4FFE79DF9031001F01F020120904035
:101740004A094EF20011CEF2000141F82200FFE7F3
:1017500001B070474EF60C50CEF200000068C0F3A6
:101760000220704782B08DF8070000919DF90700B4
:1017700000280AD4FFE7009800019DF907104EF2F7
:101780000042CEF2000288540BE0009800019DF860
:10179000071001F00F014EF61452CEF200028854E9
:1017A000FFE702B07047000083B00290029800F09B
:1017B000070000904EF60C51CEF20001086801902F
:1017C00001984FF6FF02104001900198009A40EAFC
:1017D00002200022C0F2FA521043019001980860E2
:1017E00003B0704780B584B00390039948788A7835
:1017F000C9786423584302EB820200EB420008449C
:1018000041F2D041401A029003980078732801D128
:10181000FFE744E003980078662817D1FFE70298B5
:1018200028B9FFE74FF08040FFF758F90DE04FF07F
:10183000804001900021FFF75BFA01980299FFF7C1
:1018400047FA0198FFF75EF9FFE727E00398007871
:101850006E2810D1FFE7029840F2A001C2F2000109
:1018600008604FF0804000900021FFF741FA009897
:10187000FFF748F911E0FFE744F20040C4F200002E
:10188000FFF7FCFA08B9FFE7F6E744F20040C4F2BC
:1018900000004221FFF794FBFFE7FFE7FFE704B0FA
:1018A00080BD000080B58CB00420FEF7B7FD01209C
:1018B0000290079000200390099040F26F3106914A
:1018C0000A9002200490089040F60000C4F2020042
:1018D000019006A90591FEF7EDFDDDF808C0039B18
:1018E000049A05990198CDF81CC009934FF4806CB7
:1018F000CDF818C00A930892FEF7DCFD0298FEF7B7
:101900008DFD029B039A0498059907930992202361
:1019100006930A9208900020C4F20200FEF7CAFD66
:101920000CB080BD80B59EB0002004901D904FF497
:101930008040FEF797FD4FF08050FEF781FD0320B9
:10194000FFF732FFFFF706FF049A0F21FFF746FB70
:1019500001464FF0FF30FFF705FFFFF795FEFFF759
:10196000A1FFFFF743FC00F08BF9C820029000F0C4
:10197000F7F80120009000F01FF9009800F05EF9E0
:10198000642003901B901C901B981C9900F05CF83D
:101990000299049819911A9019981A9900F054F81C
:1019A000039817906FF0630001901890179818999A
:1019B00000F04AF80498159016901598169900F0C2
:1019C00043F801980399139114901398149900F017
:1019D0003BF802990498119112901198129900F015
:1019E00033F803980F9010900F98109900F02CF88E
:1019F00004980D900E900D980E9900F025F803991B
:101A000004980B910C900B980C9900F01DF803981A
:101A100009900A9009980A9900F016F80398049919
:101A2000079108900798089900F00EF8049805901F
:101A300006900598069900F007F8049800F0FEF863
:101A4000FFE730BFFDE7000080B582B00191009054
:101A500040F29001C2F200010098019A4A600860C9
:101A6000009840F2A402C2F200021168401A0199E3
:101A70005368C91A014440F28400C2F200000160B8
:101A800000991368C91A019B5268D21A0A4440F29D
:101A90008801C2F200010A6003684FF0FF32B3F11F
:101AA000FF3F1346C8BF012340F2040CC2F2000CF2
:101AB000CCF800300B68B3F1FF3FC8BF012240F201
:101AC0000803C2F200031A600268DCF800C002FBDF
:101AD0000CF202600A681B685A430A6000680968D1
:101AE000884214DBFFE740F28400C2F20000016884
:101AF00001EBD171491040F29802C2F2000211606C
:101B0000006840F2A001C2F20001086013E040F258
:101B10008800C2F20000016801EBD171491040F267
:101B20009802C2F200021160006840F2A001C2F205
:101B300000010860FFE740F28C01C2F200010120C1
:101B400008704FF08040FEF7DDFFFFE740F28C00A9
:101B5000C2F20000007808B1FFE7F7E702B080BDED
:101B600080B582B001900198002805DCFFE74FF0B6
:101B70008040FEF7B3FF1CE0019841F289318842B2
:101B800004DBFFE741F288300190FFE74FF080402F
:101B900000900021FFF7ACF80098019A42F2107112
:101BA00091FBF2F10139FFF793F80098FEF7AAFFD5
:101BB000FFE702B080BD000081B08DF803009DF802
:101BC0000300C8B9FFE740F20C01C2F20001042093
:101BD000087040F21001C2F2000141F6F440C0F674
:101BE0000000086040F21401C2F2000141F6FC401E
:101BF000C0F6000008601EE09DF80300012819D11E
:101C0000FFE740F20C01C2F200010820087040F228
:101C10001001C2F2000141F60450C0F60000086055
:101C200040F21401C2F2000141F61450C0F6000067
:101C30000860FFE7FFE701B07047000080B582B0A1
:101C40008DF807009DF8070048B9FFE740F600004F
:101C5000C4F202004FF48061FEF7B0FC0EE09DF884
:101C60000700012809D1FFE740F60000C4F2020096
:101C70004FF48061FEF72AFDFFE7FFE702B080BD69
:101C800080B588B00120FEF7DBFB40F23F60ADF885
:101C90000C00C72005904FF08040019003A9FEF78B
:101CA0004FFF0198FEF724FF0198FEF735FF1C2037
:101CB00002900021FFF756FD0298FFF733FD08B0B0
:101CC00080BDF1EE100A4FF6FF71C0F2C03120EA7C
:101CD000010040F04070E1EE100A70470000000083
:101CE00000000000010203040607080900000000CC
:101CF00001020304030006000C000900600040011B
:101D000000032002010003000200060004000C0092
:101D100008000900200060004000400100010003AD
:101D200000022002481D00080000002020000000E2
:101D300000020008681D0008200000209006000036
:101D40001C020008000000000024F4000100000054
:101D50000100000004000000F41C0008FC1C000846
:081D6000060000000000000075
:04000005080001C529
:00000001FF
