:020000040800F2
:10000000A006002091020008390D000855030008E1
:10001000350D00084D030008ED1500080000000034
:10002000000000000000000000000000F1100008C7
:100030005103000800000000ED100008F510000852
:10004000AB020008AB020008AB020008AB020008DC
:10005000AB020008AB020008AB020008AB020008CC
:10006000AB020008AB020008AB020008AB020008BC
:10007000AB020008AB020008AB020008AB020008AC
:10008000AB020008AB020008AB020008AB0200089C
:10009000AB020008AB020008AB020008AB0200088C
:1000A000AB020008AB020008AB020008AB0200087C
:1000B000AB020008AB020008AB020008AB0200086C
:1000C000AB020008AB020008AB020008AB0200085C
:1000D000AB020008AB020008AB020008AB0200084C
:1000E000AB020008AB020008AB020008AB0200083C
:1000F000AB020008AB020008AB020008AB0200082C
:10010000AB020008AB020008AB020008AB0200081B
:10011000AB020008AB0200088D110008AB0200081A
:10012000AB020008AB020008AB020008AB020008FB
:10013000AB0200080000000000000000AB02000855
:10014000AB020008AB020008AB020008AB020008DB
:10015000AB020008AB020008AB020008AB020008CB
:10016000AB020008AB020008AB020008AB020008BB
:10017000AB020008AB020008AB0200080000000060
:1001800000000000AB0200080000000000000000BA
:10019000AB0200080000000000000000AB020008F5
:1001A000000000000000000000000000AB0200089A
:1001B000AB020008AB020008AB020008AB0200086B
:1001C000AB02000800F002F800F052F814A696E81E
:1001D000000CB244B344DA4501D100F049F8BAE862
:1001E0000F000FA696E83000A5EB040504EB060708
:1001F000AAEB0704A7F101074FEA15154FEA3414DB
:10020000A4F10104AC4201D300F032F813F0010F65
:1002100018BFFB1A43F0010300F001F8DBE71847B1
:10022000701D0000901D0000103A24BF78C878C1EE
:10023000FAD8520724BF30C830C144BF04680C60EC
:1002400070470000704700000023002400250026AE
:10025000103A28BF78C1FBD8520728BF30C148BF29
:100260000B6070471FB501F07EFD1FBD10B510BDBE
:1002700000F031F81146FFF7F5FF01F081FA00F0C8
:100280004FF803B4FFF7F2FF03BC00F057F800008B
:100290000948804709480047FEE7FEE7FEE7FEE71A
:1002A000FEE7FEE7FEE7FEE7FEE7FEE70448054956
:1002B000054A064B7047000079110008C501000887
:1002C000A0000020A0060020A0020020A002002024
:1002D000704770477047754600F02CF8AE46050031
:1002E0006946534620F00700854618B020B5FFF751
:1002F000DDFFBDE820404FF000064FF000074FF053
:1003000000084FF0000BAC46ACE8C009ACE8C009EF
:10031000ACE8C009ACE8C00921F007018D46704780
:1003200010B50446AFF300802046BDE81040FFF74B
:10033000A8BF00000048704718000020014918209D
:10034000ABBEFEE72600020070470000FFE7FEE7B5
:1003500070470000FFE7FEE782B00190019A43F684
:100360003000C4F202000168114301600068019985
:1003700008400090009802B07047000082B00190E1
:10038000019A43F64000C4F2020001681143016083
:100390000068019908400090009802B07047000082
:1003A00082B00190019A43F64400C4F20200016851
:1003B000114301600068019908400090009802B064
:1003C0007047000043F60040C4F20200006800F0ED
:1003D0000F00704781B0009043F60041C4F2020163
:1003E000086820F00F00009A1043086001B07047C1
:1003F00080B588B00390029100200190009002988F
:10040000006890FAA0F00690069820B9FFE7202037
:100410008DF81F0005E00698B0FA80F08DF81F00F7
:10042000FFE79DF81F000190FFE70298006801991F
:10043000C84000285DD0FFE702980068019A0121BA
:10044000914008400090009800284ED0FFE70298A5
:100450004068012805D0FFE70298406802280DD1C6
:10046000FFE703980099029A926800F05DF90398FB
:100470000099029AD26800F009F9FFE70398009901
:10048000029A126900F012F902984068022825D1F8
:10049000FFE7009890FAA0F00490049820B9FFE7D5
:1004A00020208DF8170005E00498B0FA80F08DF850
:1004B0001700FFE79DF81700072807D8FFE7039804
:1004C0000099029A526900F025F806E00398009915
:1004D000029A526900F05CF8FFE7FFE70398009981
:1004E000029A526800F094F8FFE7019801300190F9
:1004F0009BE7002008B080BD82B001900091019878
:10050000006900990840401AB0FA80F0400902B032
:10051000704700008AB00590049103920598006A24
:100520000290049890FAA0F00890089820B9FFE78C
:1005300020208DF8270005E00898B0FA80F08DF8AB
:100540002700FFE702989DF827108A000F219140AD
:100550008843009003980190049890FAA0F00690C8
:10056000069820B9FFE720208DF81F0005E00698C7
:10057000B0FA80F08DF81F00FFE7009801999DF810
:100580001F20920091400843059908620AB0704705
:100590008AB00590049103920598406A02900498ED
:1005A000000A90FAA0F00890089820B9FFE72020F0
:1005B0008DF8270005E00898B0FA80F08DF8270044
:1005C000FFE702989DF827108A000F219140884389
:1005D0000090039801900498000A90FAA0F0069009
:1005E000069820B9FFE720208DF81F0005E0069847
:1005F000B0FA80F08DF81F00FFE7009801999DF890
:100600001F20920091400843059948620AB0704744
:100610008AB00590049103920598006802900498AE
:1006200090FAA0F00890089820B9FFE720208DF8F4
:10063000270005E00898B0FA80F08DF82700FFE762
:1006400002989DF827104A000321914088430090AA
:1006500003980190049890FAA0F00690069820B9AB
:10066000FFE720208DF81F0005E00698B0FA80F023
:100670008DF81F00FFE7009801999DF81F20520098
:1006800091400843059908600AB0704783B0029012
:10069000019100920298406801998843009A514361
:1006A00008430299486003B0704700008AB0059083
:1006B000049103920598C0680290049890FAA0F003
:1006C0000890089820B9FFE720208DF8270005E062
:1006D0000898B0FA80F08DF82700FFE702989DF89F
:1006E00027104A000321914088430090039801900D
:1006F000049890FAA0F00690069820B9FFE7202011
:100700008DF81F0005E00698B0FA80F08DF81F0004
:10071000FFE7009801999DF81F205200914008437F
:100720000599C8600AB070478AB005900491039299
:10073000059880680290049890FAA0F008900898B4
:1007400020B9FFE720208DF8270005E00898B0FACF
:1007500080F08DF82700FFE702989DF827104A00E7
:10076000032191408843009003980190049890FAE7
:10077000A0F00690069820B9FFE720208DF81F0012
:1007800005E00698B0FA80F08DF81F00FFE70098AA
:1007900001999DF81F2052009140084305998860F7
:1007A0000AB0704780B582B0019001984FF47A7119
:1007B00000F002F802B080BD82B001900091019873
:1007C0000099B0FBF1F001384EF21401CEF20001B5
:1007D00008604EF21801CEF20001002008604EF2CF
:1007E0001001CEF200010520086002B07047000041
:1007F00047F20001C4F20001086820F4803008606C
:100800007047000081B0009047F20001C4F200017F
:10081000086820F44040009A1043086001B0704717
:1008200043F60800C4F20200006800F00C007047B4
:1008300043F60001C4F20201086840F001000860BC
:100840007047000043F60000C4F202000068C0F3E5
:100850004000704781B0009043F60001C4F20201ED
:10086000086820F0F800009A40EAC200086001B071
:100870007047000081B0009043F60801C4F2020105
:10088000086820F0F000009A1043086001B070473B
:1008900081B0009043F60801C4F20201086820F418
:1008A000E050009A1043086001B0704781B000909A
:1008B00043F60801C4F20201086820F46040009A7F
:1008C0001043086001B0704781B0009043F6080102
:1008D000C4F20201086820F00300009A1043086087
:1008E00001B0704781B0009043F68C01C4F2020160
:1008F000086820F08070009A1043086001B07047CB
:1009000081B00090009840F20001C2F2000108603E
:1009100001B0704782B001900091009A0199086A75
:100920001043086202B0704781B0009000996FF0E8
:100930000100086101B0704781B00090009908681B
:1009400020F00100086001B07047000081B0009005
:100950000099086840F08000086001B0704700000E
:1009600081B000900099086840F00100086001B073
:100970007047000081B000900099C86840F0010005
:10098000C86001B07047000081B0009000994869CC
:1009900040F00100486101B07047000081B0009054
:1009A0000098C06A01B0704780B584B0039002918E
:1009B00003980068019003980021C4F20101884265
:1009C00025D0FFE70398B0F1804F20D0FFE70398D0
:1009D00040F20041C4F20001884218D0FFE70398BA
:1009E00040F60001C4F20001884210D0FFE70398EE
:1009F00040F60041C4F20001884208D0FFE70398A6
:100A000040F20041C4F20101884208D1FFE7019899
:100A100020F070000299496808430190FFE70398AD
:100A20000021C4F20101884255D0FFE70398B0F1DC
:100A3000804F50D0FFE7039840F20041C4F200011C
:100A4000884248D0FFE7039840F60001C4F2000155
:100A5000884240D0FFE7039840F60041C4F200010D
:100A6000884238D0FFE7039840F20041C4F2010108
:100A7000884230D0FFE7039844F20001C4F201013C
:100A8000884228D0FFE7039844F20041C4F20101F4
:100A9000884220D0FFE7039844F60001C4F2010128
:100AA000884218D0FFE7039841F60001C4F2000124
:100AB000884210D0FFE7039841F60041C4F20001DC
:100AC000884208D0FFE7039842F20001C4F2000117
:100AD000884208D1FFE7019820F440700299C96864
:100AE00008430190FFE70198039908600398029971
:100AF000896800F0FFF803980299098800F00AF964
:100B000003980021C4F20101884208D0FFE703984E
:100B100040F20041C4F20101884206D1FFE7039888
:100B20000299096900F0FEF8FFE70398FFF72CFF30
:100B3000002004B080BD000089B00890079107989C
:100B4000012803D1FFE70020049030E00798042833
:100B500003D1FFE70120039026E00798102803D176
:100B6000FFE7022002901CE00798402803D1FFE72E
:100B70000320019012E00798B0F5807F03D1FFE7D2
:100B80000420009007E007990620B1F5806F08BFA8
:100B900005200090FFE700980190FFE70198029080
:100BA000FFE702980390FFE703980490FFE704989B
:100BB0008DF81B0008989DF81B2041F68051C0F667
:100BC0000001895C0844183005909DF81B1041F61F
:100BD0008750C0F60000415C082000FA01F2059938
:100BE00008681043086009B07047000080B586B0FF
:100BF00005900491039201208DF80B000498019058
:100C000001280ED0FFE70198102811D0FFE70198C6
:100C1000B0F5807F13D0FFE70198B0F5805F15D065
:100C20001BE00598039900F0BFF88DF80B0015E064
:100C30000598039900F024F98DF80B000EE0059853
:100C4000039900F08DF98DF80B0007E005980399E2
:100C500000F0F4F98DF80B0000E0FFE79DF80B00C1
:100C600006B080BD82B00190009100980199486360
:100C700002B0704782B001900091009801994863DA
:100C800002B0704782B0019000910098019988638A
:100C900002B0704782B0019000910098019988637A
:100CA00002B0704782B00190009100980199C8632A
:100CB00002B0704782B00190009100980199C8631A
:100CC00002B0704782B001900091009801990864C9
:100CD00002B0704782B001900091009801990864B9
:100CE00002B0704782B00190009100980199C862EB
:100CF00002B0704782B00190009100980199C862DB
:100D000002B0704782B0019000910098019948624A
:100D100002B0704782B001900091009801998862FA
:100D200002B0704782B00190009100980199086369
:100D300002B07047FFE7FEE7FFE7FEE788B00790E5
:100D400006910592079800F0070004900498C0F1FE
:100D50000700052803D3FFE70420019004E004986E
:100D6000C0F107000190FFE7019803900498043058
:100D7000062803D8FFE70020009003E0049803381A
:100D80000090FFE70098029006980399012202FA6A
:100D900001F101390840029B984005999A40013AB7
:100DA0001140084308B0704780B586B005900491A3
:100DB0000599086A20F0010008620598006A02900F
:100DC000059840680190059880690390039820F089
:100DD00003000390039820F0700004990968084309
:100DE0000390029820F002000499096908430290D8
:100DF000029820F001000499496808430290059880
:100E00000021C4F20101884208D0FFE7059840F2B2
:100E10000041C4F20101884220D1FFE7029820F08E
:100E200008000499496940EA81000290029820F084
:100E300004000499896840EA81000290019820F436
:100E400080700499896908430190019820F400702A
:100E50000499C96940EA41000190FFE701980599AA
:100E6000486003980599886105980499C968FFF757
:100E700001FF029805990862002006B080BD0000BD
:100E800080B586B0059004910599086A20F010009D
:100E900008620598006A02900598406801900598DC
:100EA00080690390039820F440700390039820F425
:100EB000E0400499096840EA01200390029820F07C
:100EC00020000499096940EA01100290029820F07C
:100ED00010000499496840EA011002900598002129
:100EE000C4F20101884208D0FFE7059840F20041B2
:100EF000C4F20101884221D1FFE7029820F080006E
:100F00000499496940EA81100290029820F040005B
:100F10000499896840EA81100290019820F4806069
:100F20000499896940EA81000190019820F40060E9
:100F30000499C96940EAC1000190FFE70198059949
:100F4000486003980599886105980499C968FFF776
:100F5000A1FE029805990862002006B080BD00003D
:100F600080B586B0059004910599086A20F48070D8
:100F700008620598006A02900598406801900598FB
:100F8000C0690390039820F003000390039820F0B9
:100F900070000499096808430390029820F40070D7
:100FA0000499096940EA01200290029820F48070B7
:100FB0000499496840EA0120029005980021C4F292
:100FC0000101884208D0FFE7059840F20041C4F2D1
:100FD0000101884221D1FFE7029820F400600499C2
:100FE000496940EA81200290029820F480600499C7
:100FF000896840EA81200290019820F48050049989
:10100000896940EA01100190019820F40050049988
:10101000C96940EA41100190FFE7019805994860CD
:1010200003980599C86105980499C968FFF742FEBD
:10103000029805990862002006B080BD80B586B090
:10104000059004910599086A20F48050086205987B
:10105000006A02900598406801900598C069039065
:10106000039820F440700390039820F4E040049922
:10107000096840EA01200390029820F40050049986
:10108000096940EA01300290029820F480500499E6
:10109000496840EA0130029005980021C4F201013C
:1010A000884208D0FFE7059840F20041C4F20101F0
:1010B000884209D1FFE7019820F4804004998969AA
:1010C00040EA81100190FFE7019805994860039874
:1010D0000599C86105980499C968FFF7FBFD029856
:1010E00005990862002006B080BD0000704700002E
:1010F000704700007047000080B582B00020FFF705
:1011000069F9FFE7FFF75EF908B1FFE7FAE74FF487
:101110008040FFF777FBFFF76BFB1020FFF79AFB90
:10112000FFF786FBFFE7FFF78DFB012801D0FFE704
:10113000F9E700200190FFF79DFB0198FFF7A8FB5E
:101140000198FFF7B3FB0198FFF7BEFBFFE7FFF73E
:1011500067FB08B1FFE7FAE742F20040C0F2F40093
:101160000090FFF71FFB0098FFF7CAFB0020FFF776
:10117000B9FB02B080BD00004EF68851CEF20001EE
:10118000086840F4700008607047000080B582B0C5
:1011900040F27800C2F20000006840F27C01C2F226
:1011A00000010968884236DBFFE740F20800C2F21E
:1011B0000000026840F29C01C2F20001087810446D
:1011C000087040F27C00C2F20000026840F28C001D
:1011D000C2F200000168891A01600068002819DC69
:1011E000FFE740F20C00C2F20000026840F29D01ED
:1011F000C2F2000108781044087040F27800C2F290
:101200000000026840F28C01C2F20001086810443C
:101210000860FFE735E040F20C00C2F2000002680F
:1012200040F29D01C2F2000108781044087040F2BB
:101230007800C2F20000026840F28C00C2F20000A6
:101240000168891A01600068002819DCFFE740F294
:101250000800C2F20000026840F29C01C2F20001E4
:1012600008781044087040F27C00C2F20000026866
:1012700040F28C01C2F20001086810440860FFE7E8
:10128000FFE740F29C00C2F2000090F9000040F23B
:101290001201C2F200010988B0EB810F07DBFFE702
:1012A00040F29C01C2F200010020087019E040F2F7
:1012B0009C00C2F2000090F90000B0F1FF3F0FDC8B
:1012C000FFE740F21200C2F2000001884FF0FF3049
:1012D00000EB810040F29C01C2F200010870FFE7C0
:1012E000FFE740F29D00C2F2000090F9000040F2DA
:1012F0001201C2F200010988B0EB810F07DBFFE7A2
:1013000040F29D01C2F200010020087019E040F295
:101310009D00C2F2000090F90000B0F1FF3F0FDC29
:10132000FFE740F21200C2F2000001884FF0FF30E8
:1013300000EB810040F29D01C2F200010870FFE75E
:10134000FFE740F29000C2F200000068002800F0C1
:101350000081FFE740F21400C2F20000007840F282
:101360000401C2F20001087040F29C00C2F20000C9
:1013700090F9000080B2012100F01EFB40F29D00B8
:10138000C2F2000090F9000080B2022100F014FBCC
:1013900040F27800C2F20000006840F27C01C2F224
:1013A00000010968884236DBFFE740F20800C2F21C
:1013B0000000026840F29C01C2F20001087810446B
:1013C000087040F27C00C2F20000026840F28C001B
:1013D000C2F200000168891A01600068002819DC67
:1013E000FFE740F20C00C2F20000026840F29D01EB
:1013F000C2F2000108781044087040F27800C2F28E
:101400000000026840F28C01C2F20001086810443A
:101410000860FFE735E040F20C00C2F2000002680D
:1014200040F29D01C2F2000108781044087040F2B9
:101430007800C2F20000026840F28C00C2F20000A4
:101440000168891A01600068002819DCFFE740F292
:101450000800C2F20000026840F29C01C2F20001E2
:1014600008781044087040F27C00C2F20000026864
:1014700040F28C01C2F20001086810440860FFE7E6
:10148000FFE740F29C00C2F2000090F9000040F239
:101490001201C2F200010988B0EB810F07DBFFE700
:1014A00040F29C01C2F200010020087019E040F2F5
:1014B0009C00C2F2000090F90000B0F1FF3F0FDC89
:1014C000FFE740F21200C2F2000001884FF0FF3047
:1014D00000EB810040F29C01C2F200010870FFE7BE
:1014E000FFE740F29D00C2F2000090F9000040F2D8
:1014F0001201C2F200010988B0EB810F07DBFFE7A0
:1015000040F29D01C2F200010020087019E040F293
:101510009D00C2F2000090F90000B0F1FF3F0FDC27
:10152000FFE740F21200C2F2000001884FF0FF30E6
:1015300000EB810040F29D01C2F200010870FFE75C
:10154000FFE740F29001C2F200010868013808602C
:1015500044E040F29000C2F200000068E8BBFFE700
:1015600040F21000C2F20000007840F20401C2F222
:101570000001087040F29C00C2F2000090F90000E7
:1015800080B2012100F018FA40F29D00C2F2000082
:1015900090F9000080B2022100F00EFA41F2000042
:1015A000C4F200000090FFF7C7F9009800210191F4
:1015B000FFF7A8FB019840F28402C2F20002116812
:1015C000536840F29402C2F200025360116040F28C
:1015D0008001C2F200010870FFE7FFE741F200005E
:1015E000C4F20000FFF7A0F902B080BDFFE7FEE7FC
:1015F00081B08DF803009DF9030000280ED4FFE7A9
:101600009DF9031001F01F02012090404A094EF29B
:101610000011CEF2000141F82200FFE701B070474F
:101620004EF60C50CEF200000068C0F30220704766
:1016300082B08DF8070000919DF9070000280AD4B8
:10164000FFE7009800019DF907104EF20042CEF22C
:10165000000288540BE0009800019DF8071001F08B
:101660000F014EF61452CEF200028854FFE702B08A
:101670007047000083B00290029800F007000090CD
:101680004EF60C51CEF200010868019001984FF619
:10169000FF02104001900198009A40EA02200022C7
:1016A000C0F2FA52104301900198086003B07047ED
:1016B00080B58CB002200190FEF74EFE01984FF4E9
:1016C0007071009106910790089000210391099193
:1016D0000A910B9040F20040C4F2020006A9049166
:1016E000FEF786FE0420FEF737FE009B0198039A62
:1016F000049906930790089009920A920B9040F67D
:101700000000C4F202000290FEF772FE019A039BF1
:10171000049902984FF0010CCDF814C0CDF81CC00C
:1017200009934FF4806CCDF818C00A930892FEF725
:101730005FFE039A049905984FF48043069307923D
:101740000A900020C4F20200FEF752FE0CB080BDE9
:1017500080B582B0FFE70020C4F202004FF4804160
:10176000FEF7CAFE50B9FFE76FF0090000900020B5
:1017700001900098019900F043F8ECE702B080BDB9
:1017800080B582B00020009001904FF48040FEF7B9
:1017900007FE4FF08050FEF7F1FD0320FFF76AFFD0
:1017A000FFF73EFF009A0F21FFF7C8FA01464FF0FE
:1017B000FF30FFF73DFFFFF79FFCFFF779FF00F0D9
:1017C00025FA00F0ADFA042000F0EAF840F2120029
:1017D000C2F2000000883221484300F0ABF840F626
:1017E0000000C4F20000FFF7BBF840F20040C4F272
:1017F0000000FFF7B5F8FFF7ABFFFFE730BFFDE7ED
:1018000080B582B00191009040F28401C2F20001E3
:101810000098019A4A600860009840F29402C2F26F
:1018200000021168401A01995368C91A014440F234
:101830007800C2F20000016000991368C91A019B88
:101840005268D21A0A4440F27C01C2F200010A60D6
:1018500003684FF0FF32B3F1FF3F1346C8BF0123C7
:1018600040F2080CC2F2000CCCF800300B68B3F167
:10187000FF3FC8BF012240F20C03C2F200031A600E
:101880000268DCF800C002FB0CF202600A681B6808
:101890005A430A600068096888421ADBFFE740F291
:1018A0007800C2F20000016801EBD171491040F2EA
:1018B0008C02C2F200021160006840F21201C2F212
:1018C00000010988484340F29001C2F2000108601B
:1018D00019E040F27C00C2F20000016801EBD17116
:1018E000491040F28C02C2F200021160006840F21E
:1018F0001201C2F200010988484340F29001C2F28D
:1019000000010860FFE740F28001C2F200010120FF
:10191000087041F20000C4F20000FFF721F8FFE771
:1019200040F28000C2F20000007808B1FFE7F7E75C
:1019300002B080BD80B582B001900198002807DC1C
:10194000FFE741F20000C4F20000FEF7F5FF24E0DB
:1019500001984AF22111C0F20701884206DBFFE735
:101960004AF22010C0F207000190FFE741F20000A8
:10197000C4F2000000900021FFF7C4F90098019A1A
:1019800044F24021C0F20F0191FBF2F10139FFF75F
:10199000A9F90098FEF7E4FFFFE702B080BD000060
:1019A00081B0ADF80200BDF8020040F21201C2F2AF
:1019B0000001088001B0704780B592B0ADF84600D4
:1019C0008DF8451040F21200C2F20000008881003C
:1019D0004FF40070B0FBF1F0ADF84200BDF84200EA
:1019E000BDF846104843C11700EB116121F0FF011B
:1019F000411A41F68E50C0F6000030F81110ADF8D3
:101A00004010BDF84210BDF8462051438031CA173E
:101A100001EB126222F0FF02891A30F81100ADF8D2
:101A20003E009DF84500012806D1FFE740F6000082
:101A3000C4F200000E900BE09DF84500022806D18C
:101A4000FFE740F20040C4F200000E90FFE7FFE71E
:101A50000E98FEF7A3FF0D90BDF84200BDF84610AA
:101A60004843C11700EB5160C01101460C91032897
:101A700000F2C9800C99DFE801F0023364950E98FA
:101A80000D99BDF84020514340F20402C2F2000219
:101A9000099212785143490945F6C522C0F67C22C5
:101AA0000A92A1FB0221C909FFF7DCF8099B0A9AF7
:101AB0000E980D99BDF83EC001FB0CF11B785943FF
:101AC0004909A1FB0221C909FFF7DCF80E980021A2
:101AD0000B91FFF7E7F80B990E98FFF7F3F892E0F8
:101AE0000E980D99BDF84020514340F20402C2F215
:101AF0000002079212785143490945F6C522C0F603
:101B00007C220892A1FB0221C909FFF7ABF80E98CD
:101B100000210691FFF7B6F806990E98FFF7C2F874
:101B2000079B089A0E980D99BDF83EC001FB0CF179
:101B30001B7859434909A1FB0221C909FFF7C2F8E3
:101B400061E00E9800210391FFF78CF803990E983D
:101B5000FFF798F80E980D99BDF84020514340F2D8
:101B60000402C2F20002049212785143490945F678
:101B7000C522C0F67C220592A1FB0221C909FFF70C
:101B800091F8049B059A0E980D99BDF83EC001FB93
:101B90000CF11B7859434909A1FB0221C909FFF740
:101BA00091F830E00E9800210291FFF75BF80E9853
:101BB0000D99BDF83E20514340F20402C2F20002EA
:101BC000009212785143490945F6C522C0F67C229D
:101BD0000192A1FB0221C909FFF754F8009B019A69
:101BE0000E980D99BDF840C001FB0CF11B785943CC
:101BF0004909A1FB0221C909FFF754F802990E987F
:101C0000FFF760F8FFE712B080BD000080B598B024
:101C10000420FEF7B3FB0220FEF7B0FB0020029089
:101C2000ADF84C0040F21F3115911490169040F61B
:101C30000000C4F20000099013A90191FEF7B4FE60
:101C4000019940F20040C4F200000A90FEF7ACFE99
:101C5000029A099860210B91012104910C910E9236
:101C60000F920BAA0392FEF7C1FF039A0998102165
:101C70000591FEF7BBFF039A09984FF48071069116
:101C8000FEF7B4FF039A09984FF480510791FEF7CD
:101C9000ADFF04990998FEF74FFF05990998FEF7E3
:101CA0004BFF06990998FEF747FF07990998FEF739
:101CB00043FF039A04990A98FEF798FF039A05993F
:101CC0000A98FEF793FF039A06990A98FEF78EFF8B
:101CD000039A07990A98FEF789FF04990A98FEF774
:101CE0002BFF05990A98FEF727FF06990A98FEF739
:101CF00023FF07990A98FEF71FFF099841F2111177
:101D00000891FEF707FE08990A98FEF703FE099866
:101D1000FEF71CFE0A98FEF719FE18B080BD000001
:101D200080B588B01020FEF729FB0F20ADF80C001D
:101D300040F2E140059041F20000C4F20000019041
:101D400003A9FEF731FE0198FEF700FE0198FEF7A9
:101D500011FE362002900021FFF76AFC0298FFF77F
:101D600047FC08B080BDF1EE100A4FF6FF71C0F2DB
:101D7000C03120EA010040F04070E1EE100A7047E7
:101D80000000000004040400000800000008000037
:101D90000C001900250031003D004A005600620089
:101DA0006E007A00870093009F00AB00B700C3006D
:101DB000CF00DB00E700F300FF000B011701220159
:101DC0002E013A01450151015C01680173017F0157
:101DD0008A019501A001AC01B701C201CD01D70173
:101DE000E201ED01F80102020D02170221022C02AC
:101DF000360240024A0254025E02670271027A020F
:101E000084028D029602A002A902B202BA02C302A3
:101E1000CC02D402DD02E502ED02F502FD0205036B
:101E20000D0314031C0323032A03320339033F0366
:101E300046034D0353035A03600366036C037203A6
:101E400078037D03830388038D03920397039C0328
:101E5000A103A503A903AE03B203B603B903BD03EF
:101E6000C003C403C703CA03CD03D003D203D50301
:101E7000D703D903DB03DD03DF03E003E203E3035E
:101E8000E403E503E603E703E703E803E803E80305
:101E9000E803E803E703E703E603E503E403E303FA
:101EA000E203E003DF03DD03DB03D903D703D5033C
:101EB000D203D003CD03CA03C703C403C003BD03C9
:101EC000B903B603B203AE03A903A503A1039C03A0
:101ED000970392038D03880383037D0378037203C2
:101EE0006C03660360035A0353034D0346033F0329
:101EF000390332032A0323031C0314030D030503D0
:101F0000FD02F502ED02E502DD02D402CC02C302BD
:101F1000BA02B202A902A00296028D0284027A02DB
:101F2000710267025E0254024A02400236022C022B
:101F3000210217020D020202F801ED01E201D701B0
:101F4000CD01C201B701AC01A00195018A017F0159
:101F5000730168015C01510145013A012E01220122
:101F600017010B01FF00F300E700DB00CF00C30007
:101F7000B700AB009F00930087007A006E006200FC
:101F800056004A003D003100250019000C000000F9
:101F9000B01F000800000020180000002802000800
:101FA000C81F00081800002088060000480200082A
:101FB0000024F4001E0000000100000001000000E9
:081FC0000A00040050000000BB
:04000005080001C529
:00000001FF
