:020000040800F2
:10000000D006002091020008511400088504000861
:100010004D1400083D040008ED1D0008000000001C
:10002000000000000000000000000000A11900080E
:10003000410400080000000005180008A519000888
:10004000AB020008AB020008AB020008AB020008DC
:10005000AB020008AB020008450400086504000874
:10006000AB020008AB020008AB020008AB020008BC
:10007000AB020008AB020008AB020008AB020008AC
:10008000AB020008AB020008AB020008AB0200089C
:10009000AB020008AB020008AB020008AB0200088C
:1000A000AB020008AB020008AB020008AB0200087C
:1000B000AB020008AB020008AB020008AB0200086C
:1000C000AB020008AB020008AB020008AB0200085C
:1000D000AB020008AB020008DD1C0008AB02000800
:1000E000AB020008AB020008AB020008AB0200083C
:1000F000AB020008AB020008AB020008AB0200082C
:10010000AB020008AB020008AB020008AB0200081B
:10011000AB020008AB0200083D1A0008AB02000861
:10012000AB020008AB020008AB020008AB020008FB
:10013000AB0200080000000000000000AB02000855
:10014000AB020008AB020008AB020008AB020008DB
:10015000AB020008AB020008AB020008AB020008CB
:10016000AB020008AB020008AB020008AB020008BB
:10017000AB020008AB020008AB0200080000000060
:1001800000000000AB0200080000000000000000BA
:10019000AB0200080000000000000000AB020008F5
:1001A000000000000000000000000000AB0200089A
:1001B000AB020008AB020008AB020008AB0200086B
:1001C000AB02000800F002F800F052F814A696E81E
:1001D000000CB244B344DA4501D100F049F8BAE862
:1001E0000F000FA696E83000A5EB040504EB060708
:1001F000AAEB0704A7F101074FEA15154FEA3414DB
:10020000A4F10104AC4201D300F032F813F0010F65
:1002100018BFFB1A43F0010300F001F8DBE71847B1
:100220004C2B00006C2B0000103A24BF78C878C11A
:10023000FAD8520724BF30C830C144BF04680C60EC
:1002400070470000704700000023002400250026AE
:10025000103A28BF78C1FBD8520728BF30C148BF29
:100260000B6070471FB502F060FC1FBD10B510BDDC
:1002700000F0A9F81146FFF7F5FF01F0C1FF00F00B
:10028000C7F803B4FFF7F2FF03BC00F0CFF800009B
:100290000948804709480047FEE7FEE7FEE7FEE71A
:1002A000FEE7FEE7FEE7FEE7FEE7FEE70448054956
:1002B000054A064B70470000291A0008C5010008CE
:1002C000D0000020D0060020D0020020D002002064
:1002D00053EA020C00F069802DE9F04B4FF0000664
:1002E000002B1FBFB3FA83F503FA05F424FA05F6D1
:1002F0005E4012BF1643B2FA82F502FA05F4C5F168
:1003000020051EBF22FA05FC44EA0C04203556EAFB
:10031000044C4FEA144418BF641C4FF000084FF01F
:100320000009904271EB030C39D3002919BFB1FACF
:1003300081F701FA07F6B0FA80F700FA07F6C7F17D
:1003400020071EBF20FA07FC46EA0C062037B6FB42
:10035000F4FCA7EB0507103F07F01F0BCBF12006BD
:100360002CFA06F60CFA0BFB44BFB3460026202FEE
:10037000A4BF5E464FF0000B5BEA060C08BF4FF0CF
:10038000010B19EB0B0948EB0608ABFB027C06FBE3
:1003900002CC0BFB03CCC01B71EB0C01C1E70B467D
:1003A000024641464846BDE8F08B13B5084318BFE6
:1003B0004FF0FF300146AFF30080BDE81C407047AE
:1003C000704770477047754600F02CF8AE46050040
:1003D0006946534620F00700854618B020B5FFF760
:1003E00065FFBDE820404FF000064FF000074FF0DA
:1003F00000084FF0000BAC46ACE8C009ACE8C009FF
:10040000ACE8C009ACE8C00921F007018D4670478F
:1004100010B50446AFF300802046BDE81040FFF75A
:1004200030BF00000048704720000020014918201C
:10043000ABBEFEE72600020070470000FFE7FEE7C4
:100440007047000080B540F2BC01C2F200010020FC
:10045000086040F2C001C2F200010860012000F013
:1004600049F880BD80B540F2BC01C2F20001002015
:10047000086040F2C001C2F200014860022000F0B2
:1004800039F880BDFFE7FEE782B00190019A43F69C
:100490003000C4F202000168114301600068019954
:1004A00008400090009802B07047000082B00190B0
:1004B000019A43F64000C4F2020001681143016052
:1004C0000068019908400090009802B07047000051
:1004D00082B00190019A43F64400C4F20200016820
:1004E000114301600068019908400090009802B033
:1004F0007047000081B00090009843F61441C4F2A8
:100500000101086001B0704781B00090009A43F685
:100510000441C4F2010108689043086001B07047CB
:1005200081B00090009A43F60C41C4F201010868C2
:100530009043086001B0704781B00090009A43F684
:100540000041C4F2010108689043086001B070479F
:1005500081B00090009A43F60841C4F20101086896
:100560009043086001B0704781B00090009A43F654
:100570000441C4F2010108681043086001B07047EB
:1005800081B00090009A43F60C41C4F20101086862
:100590001043086001B0704781B00090009A43F6A4
:1005A0000041C4F2010108681043086001B07047BF
:1005B00081B00090009A43F60841C4F20101086836
:1005C0001043086001B0704780B584B003900020EC
:1005D0008DF80B0003980079002867D0FFE7039897
:1005E0000068002861D0FFE7039840790146019137
:1005F00040B1FFE7019801280DD0FFE701980228DC
:1006000012D01AE003980068FFF77EFF0398006895
:10061000FFF7C2FF15E003980068FFF78DFF03980E
:100620000068FFF7A1FF0CE003980068FFF7B4FF34
:1006300003980068FFF798FF03E001208DF80B0096
:10064000FFE70398807978B3FFE703988079014644
:100650000091012808D0FFE7009802280DD0FFE79D
:100660000098032812D01AE003980068FFF758FF9B
:1006700003980068FFF79CFF15E003980068FFF7F8
:1006800067FF03980068FFF77BFF0CE003980068A2
:10069000FFF78EFF03980068FFF772FF03E0012069
:1006A0008DF80B00FFE7FFE7FFE708E0039800681D
:1006B000FFF742FF03980068FFF726FFFFE79DF86A
:1006C0000B0004B080BD000043F60040C4F20200FD
:1006D000006800F00F00704781B0009043F60041C1
:1006E000C4F20201086820F00F00009A104308606D
:1006F00001B0704780B588B003900291002001904E
:1007000000900298006890FAA0F00690069820B930
:10071000FFE720208DF81F0005E00698B0FA80F072
:100720008DF81F00FFE79DF81F000190FFE702987A
:1007300000680199C84000285DD0FFE70298006872
:10074000019A0121914008400090009800284ED065
:10075000FFE702984068012805D0FFE7029840684B
:1007600002280DD1FFE703980099029A926800F0E1
:100770006FF903980099029AD26800F01BF9FFE71D
:1007800003980099029A126900F024F902984068CF
:10079000022825D1FFE7009890FAA0F00490049871
:1007A00020B9FFE720208DF8170005E00498B0FA83
:1007B00080F08DF81700FFE79DF81700072807D88D
:1007C000FFE703980099029A526900F02FF806E0BB
:1007D00003980099029A526900F066F8FFE7FFE774
:1007E00003980099029A526800F0A6F8FFE7019872
:1007F000013001909BE7002008B080BD82B00190DD
:1008000000910198006900990840401AB0FA80F000
:10081000400902B07047000082B00190009100983A
:1008200000040199886102B0704700008AB0059009
:10083000049103920598006A0290049890FAA0F03F
:100840000890089820B9FFE720208DF8270005E0E0
:100850000898B0FA80F08DF82700FFE702989DF81D
:1008600027108A000F21914088430090039801903F
:10087000049890FAA0F00690069820B9FFE720208F
:100880008DF81F0005E00698B0FA80F08DF81F0083
:10089000FFE7009801999DF81F20920091400843BE
:1008A000059908620AB070478AB0059004910392D6
:1008B0000598406A02900498000A90FAA0F0089007
:1008C000089820B9FFE720208DF8270005E0089858
:1008D000B0FA80F08DF82700FFE702989DF8271006
:1008E0008A000F219140884300900398019004985A
:1008F000000A90FAA0F00690069820B9FFE72020A1
:100900008DF81F0005E00698B0FA80F08DF81F0002
:10091000FFE7009801999DF81F209200914008433D
:10092000059948620AB0704782B001900091009822
:100930000199886102B070478AB0059004910392D2
:10094000059800680290049890FAA0F00890089822
:1009500020B9FFE720208DF8270005E00898B0FABD
:1009600080F08DF82700FFE702989DF827104A00D5
:10097000032191408843009003980190049890FAD5
:10098000A0F00690069820B9FFE720208DF81F0000
:1009900005E00698B0FA80F08DF81F00FFE7009898
:1009A00001999DF81F205200914008430599086065
:1009B0000AB0704783B0029001910092029840689B
:1009C00001998843009A514308430299486003B053
:1009D000704700008AB00590049103920598C068A2
:1009E0000290049890FAA0F00890089820B9FFE7C8
:1009F00020208DF8270005E00898B0FA80F08DF8E7
:100A00002700FFE702989DF827104A000321914034
:100A10008843009003980190049890FAA0F0069003
:100A2000069820B9FFE720208DF81F0005E0069802
:100A3000B0FA80F08DF81F00FFE7009801999DF84B
:100A40001F205200914008430599C8600AB07047C2
:100A50008AB00590049103920598806802900498EA
:100A600090FAA0F00890089820B9FFE720208DF8B0
:100A7000270005E00898B0FA80F08DF82700FFE71E
:100A800002989DF827104A00032191408843009066
:100A900003980190049890FAA0F00690069820B967
:100AA000FFE720208DF81F0005E00698B0FA80F0DF
:100AB0008DF81F00FFE7009801999DF81F20520054
:100AC00091400843059988600AB0704780B582B0AC
:100AD000019001984FF47A7100F002F802B080BDE5
:100AE00082B00190009101980099B0FBF1F00138BB
:100AF0004EF21401CEF2000108604EF21801CEF25F
:100B00000001002008604EF21001CEF20001052025
:100B1000086002B07047000047F20001C4F2000113
:100B2000086820F4803008607047000081B00090B1
:100B300047F20001C4F20001086820F44040009A26
:100B40001043086001B0704743F60800C4F2020089
:100B5000006800F0F000704743F60800C4F202009D
:100B6000006800F4E050704743F60800C4F2020049
:100B7000006800F46040704743F60800C4F20200C9
:100B8000006800F00C00704743F60800C4F2020051
:100B9000006800F00C00704780B582B0019000F052
:100BA0006BFE019908600198006800F02DFE019924
:100BB00048600198406800F03BFE01998860019808
:100BC000406800F047FE0199C86002B080BD000097
:100BD00043F60001C4F20201086840F00100086019
:100BE0007047000043F60000C4F202000068C0F342
:100BF0004000704781B0009043F60001C4F202014A
:100C0000086820F0F800009A40EAC200086001B0CD
:100C10007047000043F60400C4F20200006800F0D0
:100C20003F00704743F60400C4F20200006800F47D
:100C30008000704743F60400C4F202000068C0F36D
:100C40008810704743F60400C4F20200006800F404
:100C50004030704743F60400C4F20200006800F020
:100C6000E040704781B0009043F60801C4F20201F1
:100C7000086820F0F000009A1043086001B0704747
:100C800081B0009043F60801C4F20201086820F424
:100C9000E050009A1043086001B0704781B00090A6
:100CA00043F60801C4F20201086820F46040009A8B
:100CB0001043086001B0704781B0009043F608010E
:100CC000C4F20201086820F00300009A1043086093
:100CD00001B0704781B0009043F68C01C4F202016C
:100CE000086820F08070009A1043086001B07047D7
:100CF00086B0039002919DF8081043F60800C4F2F4
:100D0000010050F82110029A100C21EA12410091C2
:100D10000399019190FAA0F00490049820B9FFE79C
:100D200020208DF8170005E00498B0FA80F08DF8C7
:100D30001700FFE7009801999DF81720914008439C
:100D40009DF8082043F60801C4F2010141F8220091
:100D500006B0704781B00090009840F20001C2F2E6
:100D60000001086001B0704782B001900091009AC4
:100D70000199086A1043086202B0704781B0009080
:100D800000996FF00100086101B0704781B00090D8
:100D90000099086820F00100086001B07047000069
:100DA00081B000900099086840F08000086001B0B0
:100DB0007047000081B000900099086840F0010081
:100DC000086001B07047000081B000900099C868C9
:100DD00040F00100C86001B07047000081B0009091
:100DE0000099486940F00100486101B07047000077
:100DF00081B000900098C06A01B0704780B584B09F
:100E00000390029103980068019003980021C4F2B6
:100E10000101884225D0FFE70398B0F1804F20D030
:100E2000FFE7039840F20041C4F20001884218D065
:100E3000FFE7039840F60001C4F20001884210D099
:100E4000FFE7039840F60041C4F20001884208D051
:100E5000FFE7039840F20041C4F20101884208D143
:100E6000FFE7019820F0700002994968084301905B
:100E7000FFE703980021C4F20101884255D0FFE743
:100E80000398B0F1804F50D0FFE7039840F2004143
:100E9000C4F20001884248D0FFE7039840F6000101
:100EA000C4F20001884240D0FFE7039840F60041B9
:100EB000C4F20001884238D0FFE7039840F20041B5
:100EC000C4F20101884230D0FFE7039844F20001E8
:100ED000C4F20101884228D0FFE7039844F20041A0
:100EE000C4F20101884220D0FFE7039844F60001D4
:100EF000C4F20101884218D0FFE7039841F60001CF
:100F0000C4F20001884210D0FFE7039841F6004187
:100F1000C4F20001884208D0FFE7039842F20001C2
:100F2000C4F20001884208D1FFE7019820F4407024
:100F30000299C96808430190FFE701980399086086
:100F400003980299896800F0FFF8039802990988CC
:100F500000F00AF903980021C4F20101884208D088
:100F6000FFE7039840F20041C4F20101884206D134
:100F7000FFE703980299096900F0FEF8FFE703987C
:100F8000FFF72CFF002004B080BD000089B008905E
:100F900007910798012803D1FFE70020049030E073
:100FA0000798042803D1FFE70120039026E0079863
:100FB000102803D1FFE7022002901CE00798402888
:100FC00003D1FFE70320019012E00798B0F5807F7E
:100FD00003D1FFE70420009007E007990620B1F550
:100FE000806F08BF05200090FFE700980190FFE7A1
:100FF00001980290FFE702980390FFE7039804909E
:10100000FFE704988DF81B0008989DF81B2042F616
:101010005C31C0F60001895C0844183005909DF8E9
:101020001B1042F66330C0F60000415C082000FA55
:1010300001F2059908681043086009B07047000084
:1010400080B586B005900491039201208DF80B00C5
:101050000498019001280ED0FFE70198102811D0C4
:10106000FFE70198B0F5807F13D0FFE70198B0F556
:10107000805F15D01BE00598039900F021FA8DF8E8
:101080000B0015E00598039900F086FA8DF80B0027
:101090000EE00598039900F0EFFA8DF80B0007E0D9
:1010A0000598039900F056FB8DF80B0000E0FFE770
:1010B0009DF80B0006B080BD82B0019000910098B1
:1010C0000199486302B0704782B001900091009886
:1010D0000199486302B0704782B001900091009876
:1010E0000199886302B0704782B001900091009826
:1010F0000199886302B0704782B001900091009816
:101100000199C86302B0704782B0019000910098C5
:101110000199C86302B0704782B0019000910098B5
:101120000199086402B0704782B001900091009864
:101130000199086402B0704782B001900091009854
:101140000199C86202B0704782B001900091009886
:101150000199C86202B0704782B001900091009876
:101160000199486202B0704782B0019000910098E6
:101170000199886202B0704782B001900091009896
:101180000199086302B0704781B000900099C86867
:1011900040F40050C86001B07047000082B0019078
:1011A000FFE7FFE7019850E8030F40F020000090B0
:1011B000FFE70099019A42E803100028F2D1FFE707
:1011C000FFE702B07047000080B588B00790069135
:1011D00001208DF8170000200490079800F092F885
:1011E00000287AD1FFE70798C06849F20C6188436C
:1011F000069A5168D2F80CC01369926941EA0C0151
:101200001943114308430799C860079806998968EC
:1012100000F0EEF807980699496900F0DBF8684697
:10122000FFF7BAFC079841F20001C4F201018842BD
:1012300003D1FFE7039804903CE0079844F2004193
:10124000C4F20001884203D1FFE70298049030E025
:10125000079844F60001C4F20001884203D1FFE779
:101260000298049024E0079841F20041C4F2010181
:10127000884203D1FFE70398049018E0079844F6EA
:101280000041C4F20001884203D1FFE702980490B4
:101290000CE0079845F20001C4F20001884203D136
:1012A000FFE70298049000E0FFE7FFE7FFE7FFE7B2
:1012B000FFE7FFE7049878B1FFE70698006858B1A8
:1012C000FFE700208DF8170007980499069A136825
:1012D000926900F027F8FFE7FFE79DF8170008B0D4
:1012E00080BD000081B0009000980068C0F34010FD
:1012F00001B0704781B0009000980068C0B2C0098A
:1013000001B0704781B000900098C068C0F34030D1
:1013100001B0704781B0009000984068C0B201B041
:101320007047000080B584B0039002910192009351
:101330000198B0F5004F26D1FFE702981921A0FBD4
:101340000101009B5A00DB0FFEF7C2FF844648F202
:101350001F52C5F2EB12ACFB0210410908016423D5
:1013600001FB13C3322101EBC301A1FB0221F822CF
:1013700002EA511200EB4200C1F34211084480B26C
:101380000399886024E002981921A0FB0101009BC9
:101390009A009B0FFEF79CFF034648F21F51C5F2CF
:1013A000EB11A3FB01204209642002FB1033322021
:1013B00000EB0310A0FB0101F02000EA511000EB4C
:1013C0000210C1F34311084480B203998860FFE71B
:1013D00004B080BD82B0019000910198406920F472
:1013E0004070009908430199486102B070470000BD
:1013F00082B0019000910198006920F4405000995A
:1014000008430199086102B07047000081B0009064
:1014100000994FF416500860009900204860009928
:1014200088600099C860009A0C2111610099486198
:101430000099886101B0704782B001908DF8031067
:101440009DF803000199486002B07047FFE7FEE78E
:10145000FFE7FEE788B0079006910592079800F035
:10146000070004900498C0F10700052803D3FFE7A4
:101470000420019004E00498C0F107000190FFE708
:101480000198039004980430062803D8FFE7002051
:10149000009003E0049803380090FFE70098029062
:1014A00006980399012202FA01F101390840029BD2
:1014B000984005999A40013A1140084308B0704796
:1014C00080B586B0059004910599086A20F0010066
:1014D00008620598006A0290059840680190059896
:1014E00080690390039820F003000390039820F094
:1014F00070000499096808430390029820F00200E4
:101500000499096908430290029820F001000499A7
:1015100049680843029005980021C4F201018842FD
:1015200008D0FFE7059840F20041C4F2010188426B
:1015300020D1FFE7029820F008000499496940EAA9
:1015400081000290029820F004000499896840EA22
:1015500081000290019820F4807004998969084301
:101560000190019820F400700499C96940EA410093
:101570000190FFE7019805994860039805998861F3
:1015800005980499C968FFF79FFD029805990862BC
:10159000002006B080BD000080B586B005900491A3
:1015A0000599086A20F0100008620598006A029008
:1015B000059840680190059880690390039820F48D
:1015C00040700390039820F4E0400499096840EAD1
:1015D00001200390029820F020000499096940EA54
:1015E00001100290029820F010000499496840EA26
:1015F0000110029005980021C4F20101884208D030
:10160000FFE7059840F20041C4F20101884221D170
:10161000FFE7029820F080000499496940EA8110B0
:101620000290029820F040000499896840EA8110F5
:101630000290019820F480600499896940EA810051
:101640000190019820F400600499C96940EAC10042
:101650000190FFE701980599486003980599886112
:1016600005980499C968FFF73FFD0298059908623B
:10167000002006B080BD000080B586B005900491C2
:101680000599086A20F4807008620598006A029043
:101690000598406801900598C0690390039820F070
:1016A00003000390039820F0700004990968084330
:1016B0000390029820F400700499096940EA01201F
:1016C0000290029820F480700499496840EA012051
:1016D000029005980021C4F20101884208D0FFE77A
:1016E000059840F20041C4F20101884221D1FFE790
:1016F000029820F400600499496940EA8120029030
:10170000029820F480600499896840EA8120029060
:10171000019820F480500499896940EA01100190F1
:10172000019820F400500499C96940EA41100190E1
:10173000FFE701980599486003980599C8610598E5
:101740000499C968FFF7E0FC029805990862002037
:1017500006B080BD80B586B0059004910599086AF1
:1017600020F4805008620598006A0290059840684D
:1017700001900598C0690390039820F4407003908D
:10178000039820F4E0400499096840EA012003909E
:10179000029820F400500499096940EA013002904F
:1017A000029820F480500499496840EA0130029080
:1017B00005980021C4F20101884208D0FFE705988E
:1017C00040F20041C4F20101884209D1FFE70198CB
:1017D00020F480400499896940EA81100190FFE774
:1017E00001980599486003980599C861059804997E
:1017F000C968FFF799FC029805990862002006B0B5
:1018000080BD00007047000080B582B00190019853
:101810000090FFF799F901460098C9B20A0942F60B
:101820004431C0F60001895CC84002B080BD0000B0
:1018300080B582B0019001980090FFF78DF90146C4
:1018400000988A0A42F65431C0F60001895CC8400B
:1018500002B080BD80B582B0019001980090FFF782
:1018600083F9014600984A0B42F65431C0F6000154
:10187000895CC84002B080BD80B582B00020019074
:10188000FFF782F9014600910C281FD80099DFE884
:1018900001F0071D1D1D0D1D1D1D131D1D1D180013
:1018A00042F20040C0F2F400019015E047F640001B
:1018B000C0F27D1001900FE0082000F011F80190B7
:1018C0000AE00C2000F00CF8019005E042F2004024
:1018D000C0F2F4000190FFE7019802B080BD000063
:1018E00080B58CB00B9000200A9009900890FFF70B
:1018F00099F909900998079028B1FFE70798B0F582
:10190000800F06D00BE042F20040C0F2F4000A90D3
:101910000BE047F64000C0F27D100A9005E042F26D
:101920000040C0F2F4000A90FFE70B9808281BD192
:10193000FFE70A980490FFF76DF901460498B0FBA1
:10194000F1F00590FFF776F90146059848430690B7
:10195000FFF778F9014606980A0C022101EB4201D3
:10196000B0FBF1F0089017E00A980190FFF752F9E8
:1019700001460198B0FBF1F00290FFF75BF90146D8
:10198000029848430390FFF765F901460398090F51
:10199000B0FBF1F00890FFE708980CB080BD0000A4
:1019A000704700007047000080B582B00020FEF74D
:1019B00093FEFFE7FEF788FE08B1FFE7FAE74FF472
:1019C0008040FFF7B3F8FFF7A7F81020FFF712F9F0
:1019D000FFF7FEF8FFE7FFF705F9012801D0FFE761
:1019E000F9E700200190FFF73DF90198FFF748F96A
:1019F0000198FFF753F90198FFF75EF9FFE7FFF74A
:101A0000BBF808B1FFE7FAE742F20040C0F2F40089
:101A10000090FFF75BF80098FFF79CF90020FFF7B4
:101A200059F902B080BD00004EF68851CEF2000197
:101A3000086840F4700008607047000080B582B00C
:101A400040F2BC00C2F200000068002800F0FC80F8
:101A5000FFE740F21E00C2F20000007840F20401ED
:101A6000C2F20001087040F2C800C2F20000008813
:101A7000012100F061FE40F2CA00C2F200000088BD
:101A8000022100F059FE40F2A400C2F200000068FA
:101A900040F2A801C2F200010968884236DBFFE784
:101AA00040F20800C2F20000026840F2C801C2F22F
:101AB000000108881044088040F2A800C2F200002B
:101AC000026840F2B800C2F200000168891A0160A1
:101AD0000068002819DCFFE740F20C00C2F20000A9
:101AE000026840F2CA01C2F200010888104408806E
:101AF00040F2A400C2F20000026840F2B801C2F253
:101B00000001086810440860FFE735E040F20C006F
:101B1000C2F20000026840F2CA01C2F20001088865
:101B20001044088040F2A400C2F20000026840F2B3
:101B3000B800C2F200000168891A0160006800283C
:101B400019DCFFE740F20800C2F20000026840F230
:101B5000C801C2F2000108881044088040F2A800C1
:101B6000C2F20000026840F2B801C2F20001086847
:101B700010440860FFE7FFE740F2C800C2F200002F
:101B8000B0F9000040F21C01C2F200010988B0EB7C
:101B9000810F07DBFFE740F2C801C2F2000100201D
:101BA000088019E040F2C800C2F20000B0F900005D
:101BB000B0F1FF3F0FDCFFE740F21C00C2F2000073
:101BC00001884FF0FF3000EB810040F2C801C2F203
:101BD00000010880FFE7FFE740F2CA00C2F2000000
:101BE000B0F9000040F21C01C2F200010988B0EB1C
:101BF000810F07DBFFE740F2CA01C2F200010020BB
:101C0000088019E040F2CA00C2F20000B0F90000FA
:101C1000B0F1FF3F0FDCFFE740F21C00C2F2000012
:101C200001884FF0FF3000EB810040F2CA01C2F2A0
:101C300000010880FFE7FFE740F2BC01C2F20001AB
:101C400008680138086040E040F21000C2F200006D
:101C5000007840F20401C2F20001087040F2C800AE
:101C6000C2F200000088012100F066FD40F2CA00C7
:101C7000C2F200000088022100F05EFD41F2000087
:101C8000C4F200000090FFF781F800980021019154
:101C9000FFF762FA019840F2B002C2F20002116846
:101CA000536840F2C002C2F200025360116040F279
:101CB000AC01C2F20001087040F2BC01C2F20001A6
:101CC00008604B2000F0C4FCFFE741F20000C4F2C2
:101CD0000000FFF753F802B080BD000080B582B06D
:101CE00044F20040C4F20000FFF7FCFA00284FD095
:101CF000FFE744F20040C4F20000FFF70BFB019045
:101D000001980A280FD1FFE740F2A002C2F20002B8
:101D1000137840F28000C2F200000021C15411701B
:101D200000F0C6F833E040F2A000C2F200000078F4
:101D30001F280EDCFFE7019840F2A003C2F2000367
:101D40001A78511C197040F28001C2F200018854C7
:101D50001CE040F2A001C2F200010020087040F235
:101D60008001C2F200010870FFE744F20040C4F2B3
:101D70000000FFF7BFFA08B9FFE7F6E744F20040BA
:101D8000C4F200004621FFF757FBFFE7FFE7FFE73C
:101D900002B080BD80B58AB04FF40030FEF786FBFC
:101DA00003A80090FFF732FB00994FF4E130039055
:101DB000002004900590069008900C20079044F2B3
:101DC0000040C4F200000190FFF7FEF90198FFF710
:101DD000DBF90198FFF7E2F926200290022100F0DA
:101DE00027F8029800F004F80AB080BDFFE7FEE78C
:101DF00081B08DF803009DF9030000280ED4FFE7A1
:101E00009DF9031001F01F02012090404A094EF293
:101E10000011CEF2000141F82200FFE701B0704747
:101E20004EF60C50CEF200000068C0F3022070475E
:101E300082B08DF8070000919DF9070000280AD4B0
:101E4000FFE7009800019DF907104EF20042CEF224
:101E5000000288540BE0009800019DF8071001F083
:101E60000F014EF61452CEF200028854FFE702B082
:101E70007047000083B00290029800F007000090C5
:101E80004EF60C51CEF200010868019001984FF611
:101E9000FF02104001900198009A40EA02200022BF
:101EA000C0F2FA52104301900198086003B07047E5
:101EB00080B588B00790079800784D281AD1FFE7C1
:101EC00007984078332807D1FFE7012000F05EFD36
:101ED0004B2000F0BDFBA9E007984078352807D1DA
:101EE000FFE7002000F052FD4B2000F0B1FB9DE029
:101EF000FFE794E007980078472806D0FFE70798A7
:101F00000078672840F08A80FFE7079840783228F9
:101F100008D1FFE707988078382803D1FFE700F061
:101F20001BF983E007984078302875D1FFE702203D
:101F30000690FFE707980699405C202804D1FFE748
:101F4000069801300690F5E707980699405C462808
:101F500006D0FFE707980699405C66280FD1FFE797
:101F6000069801300690079806A900F02DFB059011
:101F7000059800F097FB4B2000F06AFB56E00798AD
:101F80000699405C582806D0FFE707980699405C00
:101F900078283FD1FFE7069801300690079806A9F8
:101FA00000F076FA9FED221A20EE010ABDEEC00A7B
:101FB0008DED040AFFE707980699405C202804D1BC
:101FC000FFE7069801300690F5E707980699405C10
:101FD000592806D0FFE707980699405C792818D160
:101FE000FFE7069801300690079806A900F050FA1E
:101FF0009FED0F1A20EE010ABDEEC00A8DED030A17
:1020000004980190039802900198029900F03CF91D
:102010000CE0FFE7FFE7FFE7FFE7FFE7FFE746200A
:1020200000F016FB079800F02BFBFFE708B080BD1F
:1020300000007A4480B592B002200290FEF724FAA4
:1020400002984FF4707100910C910D900E90002148
:1020500007910F911091119040F20040C4F20200DC
:102060000CA90491FEF746FB0420FEF70DFA009B35
:1020700002980499079A0C930D900E900F9210926B
:10208000119040F60000C4F202000190FEF732FB0E
:10209000029A0499079B01984FF0010CCDF818C0E3
:1020A000CDF834C00F934FF4806CCDF830C010934E
:1020B0000E92FEF71FFB0698FEF7E6F902980499C8
:1020C000079A0D900F920C230C9310920E900720FC
:1020D000099011900020C4F202000390FEF70AFB61
:1020E0000698FEF7D1F9029B03980499079A0D927E
:1020F0004FF0030CCDF814C0CDF830C010920E9301
:102100001192FEF7F7FA07984FF47021FEF7F0FDF1
:1021100007984FF47001FEF7EBFD059A06980799B2
:102120000A928DF82D108DF82E008DF82C000AA83B
:10213000FEF74AFA079906200890FFF779FE0799FB
:102140000998FFF775FE0898FFF752FE0998FFF708
:102150004FFE12B080BD000080B58AB00020C4F2EE
:1021600002000121FEF74AFBB0B9FFE745F6907087
:10217000C0F2010008900020099040F2C002C2F2B3
:1021800000020899099B5360116006900790069819
:10219000079900F079F803E04B2000F059FAFFE7C7
:1021A0000020C4F202000221FEF728FBB0B9FFE7CD
:1021B0000020049045F69071C0F20101059140F2B3
:1021C000C002C2F200020499059B536011600290A4
:1021D00003900298039900F057F803E04B2000F0B9
:1021E00037FAFFE700200090019040F2C001C2F2F0
:1021F00000010098019A4A6008600AB080BD0000A2
:1022000080B582B00020009001904FF48040FEF72E
:102210005FF94FF08050FEF749F90320FFF72AFEDF
:10222000FFF7FEFD009A0F21FFF714F901464FF06A
:10223000FF30FFF7FDFDFFF7B7FBFFF7FBFEFFF7F2
:10224000A9FD00F0C5FB00F04DFC102000F068FA7D
:1022500040F21C00C2F2000000886421484300F0F4
:1022600021FA40F60000C4F20000FEF7A3FD40F2A0
:102270000040C4F20000FEF79DFD4B2000F0E8F99D
:10228000FFE730BFFDE7000080B584B00391029006
:1022900040F2B000C2F20000006840F21401C2F245
:1022A0000001096888420BD9FFE740F21400C2F22E
:1022B0000000006840F2B001C2F20001086010E0C6
:1022C00040F2B000C2F200000068B0F1FF3F07DC4E
:1022D000FFE740F2B001C2F2000100200860FFE712
:1022E000FFE740F2B000C2F20000406840F218017F
:1022F000C2F20001096888420BD9FFE740F21800DA
:10230000C2F20000006840F2B001C2F20001486071
:1023100010E040F2B000C2F200004068B0F1FF3FB0
:1023200007DCFFE740F2B001C2F200010020486084
:10233000FFE7FFE7029841F66D61C3F2A27150FB1F
:1023400001F2D01100EBD2700090039850FB01F124
:10235000C81100EBD170019040F2B003C2F200034B
:102360000098019959601860186840F2C002C2F2E2
:1023700000021168401A5968D2F804C0A1EB0C01A0
:10238000014440F2A400C2F2000001601968D2F8D2
:1023900000C0A1EB0C015B685268D21A0A4440F2FB
:1023A000A801C2F200010A6003684FF0FF32B3F1E6
:1023B000FF3F9446C8BF4FF0010C40F20803C2F241
:1023C0000003C3F800C0D1F800C0BCF1FF3FC8BF94
:1023D000012240F20C0CC2F2000CCCF80020026882
:1023E0001B685A4340F21C03C2F20003B3F800E03A
:1023F00002FB0EF202600A68DCF800C002FB0CF27D
:102400001B885A430A6000680968884214DBFFE7AA
:1024100040F2A400C2F20000016801EBD171491042
:1024200040F2B802C2F200021160006840F2BC0142
:10243000C2F20001086013E040F2A800C2F20000FE
:10244000016801EBD171491040F2B802C2F20002FA
:102450001160006840F2BC01C2F200010860FFE7B1
:1024600040F2AC01C2F200010120087041F200000C
:10247000C4F20000FEF79EFCFFE740F2AC00C2F29F
:102480000000007808B1FFE7F7E704B080BD000066
:1024900087B0069005914FF07E5004900020039085
:1024A000069805990968405C2D2809D1FFE70020AE
:1024B000CBF6807004900599086801300860FFE74A
:1024C000FFE7069805990968415C002030290190D2
:1024D0000ADBFFE7069805990968415C00203A2964
:1024E000B8BF01200190FFE70198C007C0B1FFE726
:1024F0009DED030A069805990968405C303801EEA5
:10250000100AB8EEC11AB2EE042A20EE020A30EE2A
:10251000010A8DED030A0599086801300860D0E7CB
:10252000069805990968405C2E2842D1FFE7059975
:102530000868013008604CF6CD40C3F6CC500290DC
:10254000FFE7069805990968415C00203029009052
:102550000ADBFFE7069805990968415C00203A29E3
:10256000B8BF01200090FFE70098C00700B3FFE765
:10257000069805990968405C303800EE100AB8EEFC
:10258000C00A9DED022A9DED031A20EE020A30EEEC
:10259000010A8DED030A9DED020A9FED0A1A20EE55
:1025A000010A8DED020A0599086801300860C8E744
:1025B000FFE79DED040A9DED031A20EE010A07B026
:1025C000704700BFCDCCCC3D85B004900391012075
:1025D000029000200190049803990968405C2D281E
:1025E00008D1FFE74FF0FF300290039908680130EF
:1025F0000860FFE7FFE7049803990968415C002041
:10260000302900900ADBFFE7049803990968415CD0
:1026100000203A29B8BF01200090FFE70098C007CA
:1026200080B1FFE7019800EB80010498039A1268DB
:10263000805C00EB4100303801900399086801305C
:102640000860D8E702980199484305B07047000038
:1026500080B582B08DF80700FFE744F20040C4F275
:102660000000FEF747FE08B9FFE7F6E79DF8071000
:1026700044F20040C4F20000FEF7DEFE02B080BD6E
:1026800080B582B00190FFE70198007838B1FFE78C
:102690000198411C01910078FFF7DAFFF4E702B0DE
:1026A00080BD000080B582B001900198002807DC51
:1026B000FFE741F20000C4F20000FEF767FB2CE0E8
:1026C00001984AF22111C0F20701884206DBFFE7B8
:1026D0004AF22010C0F20700019007E001980F288D
:1026E00003DCFFE710200190FFE7FFE741F2000065
:1026F000C4F2000000900021FEF72EFD0098019A20
:1027000044F24021C0F20F0191FBF2F10139FEF7D2
:1027100013FD0098FEF74EFBFFE702B080BD0000FE
:1027200081B0ADF80200BDF8020040F21C01C2F217
:102730000001088001B0704780B592B0ADF8460046
:102740008DF8451040F21C00C2F2000000888100A4
:102750004FF40070B0FBF1F0ADF84200BDF842005C
:10276000BDF846104843C11700EB116121F0FF018D
:10277000411A42F66A30C0F6000030F81110ADF888
:102780004010BDF84210BDF8462051438031CA17B1
:1027900001EB126222F0FF02891A30F81100ADF845
:1027A0003E009DF84500012806D1FFE740F60000F5
:1027B000C4F200000E900BE09DF84500022806D1FF
:1027C000FFE740F20040C4F200000E90FFE7FFE791
:1027D0000E98FEF70DFB0D90BDF84200BDF84610B7
:1027E0004843C11700EB5160C01101460C9103280A
:1027F00000F2C9800C99DFE801F0023364950E986D
:102800000D99BDF84020514340F20402C2F200028B
:10281000099212785143490945F6C522C0F67C2237
:102820000A92A1FB0221C909FEF746FC099B0A9AFC
:102830000E980D99BDF83EC001FB0CF11B78594371
:102840004909A1FB0221C909FEF746FC0E980021A7
:102850000B91FEF751FC0B990E98FEF75DFC92E090
:102860000E980D99BDF84020514340F20402C2F287
:102870000002079212785143490945F6C522C0F675
:102880007C220892A1FB0221C909FEF715FC0E98D3
:1028900000210691FEF720FC06990E98FEF72CFC0D
:1028A000079B089A0E980D99BDF83EC001FB0CF1EC
:1028B0001B7859434909A1FB0221C909FEF72CFCE9
:1028C00061E00E9800210391FEF7F6FB03990E9844
:1028D000FEF702FC0E980D99BDF84020514340F2DE
:1028E0000402C2F20002049212785143490945F6EB
:1028F000C522C0F67C220592A1FB0221C909FEF780
:10290000FBFB049B059A0E980D99BDF83EC001FB98
:102910000CF11B7859434909A1FB0221C909FEF7B3
:10292000FBFB30E00E9800210291FEF7C5FB0E98EC
:102930000D99BDF83E20514340F20402C2F200025C
:10294000009212785143490945F6C522C0F67C220F
:102950000192A1FB0221C909FEF7BEFB009B019A6F
:102960000E980D99BDF840C001FB0CF11B7859433E
:102970004909A1FB0221C909FEF7BEFB02990E9885
:10298000FEF7CAFBFFE712B080BD000080B582B041
:102990008DF807009DF8070048B9FFE740F60000F2
:1029A000C4F202004FF48061FDF736FF0EE09DF89F
:1029B0000700012809D1FFE740F60000C4F2020039
:1029C0004FF48061FDF7B0FFFFE7FFE702B080BD85
:1029D00080B598B00420FDF769FD0220FDF766FD83
:1029E00000200290ADF84C0040F21F311591149078
:1029F000169040F60000C4F20000099013A901915E
:102A0000FEF7FCF9019940F20040C4F200000A9080
:102A1000FEF7F4F9029A099860210B9101210491C3
:102A20000C910E920F920BAA0392FEF709FB039AE8
:102A3000099810210591FEF703FB039A09984FF4BA
:102A400080710691FEF7FCFA039A09984FF48051C1
:102A50000791FEF7F5FA04990998FEF797FA059998
:102A60000998FEF793FA06990998FEF78FFA0799E5
:102A70000998FEF78BFA039A04990A98FEF7E0FA90
:102A8000039A05990A98FEF7DBFA039A06990A98C1
:102A9000FEF7D6FA039A07990A98FEF7D1FA049935
:102AA0000A98FEF773FA05990A98FEF76FFA0699E5
:102AB0000A98FEF76BFA07990A98FEF767FA0998E1
:102AC00041F211110891FEF74FF908990A98FEF7A3
:102AD0004BF90998FEF764F90A98FEF761F918B006
:102AE00080BD000080B588B01020FDF7DFFC0F200E
:102AF000ADF80C0040F2E140059041F20000C4F254
:102B00000000019003A9FEF779F90198FEF748F952
:102B10000198FEF759F9362002900121FFF788F954
:102B20000298FFF765F908B080BDF1EE100A4FF684
:102B3000FF71C0F2C03120EA010040F04070E1EEC8
:102B4000100A7047000000000000000001020304AA
:102B5000060708090000000001020304000000004D
:102B60000404040000080000000800000C00190024
:102B7000250031003D004A00560062006E007A00D8
:102B8000870093009F00AB00B700C300CF00DB00BD
:102B9000E700F300FF000B01170122012E013A01AB
:102BA000450151015C01680173017F018A019501B2
:102BB000A001AC01B701C201CD01D701E201ED01D5
:102BC000F80102020D02170221022C023602400215
:102BD0004A0254025E02670271027A0284028D0286
:102BE0009602A002A902B202BA02C302CC02D40227
:102BF000DD02E502ED02F502FD0205030D031403FB
:102C00001C0323032A03320339033F0346034D0306
:102C100053035A03600366036C03720378037D0356
:102C2000830388038D03920397039C03A103A503E9
:102C3000A903AE03B203B603B903BD03C003C403C3
:102C4000C703CA03CD03D003D203D503D703D903E7
:102C5000DB03DD03DF03E003E203E303E403E50357
:102C6000E603E703E703E803E803E803E803E80310
:102C7000E703E703E603E503E403E303E203E0031A
:102C8000DF03DD03DB03D903D703D503D203D0036E
:102C9000CD03CA03C703C403C003BD03B903B6030E
:102CA000B203AE03A903A503A1039C0397039203F8
:102CB0008D03880383037D03780372036C0366032B
:102CC00060035A0353034D0346033F0339033203A2
:102CD0002A0323031C0314030D030503FD02F5025D
:102CE000ED02E502DD02D402CC02C302BA02B20256
:102CF000A902A00296028D0284027A027102670282
:102D00005E0254024A02400236022C0221021702DD
:102D10000D020202F801ED01E201D701CD01C2016D
:102D2000B701AC01A00195018A017F01730168011F
:102D30005C01510145013A012E01220117010B01ED
:102D4000FF00F300E700DB00CF00C300B700AB00DB
:102D50009F00930087007A006E00620056004A00D0
:102D60003D003100250019000C000000902D0008E6
:102D7000000000202000000028020008B02D0008FC
:102D800020000020B00600004802000800000000FB
:102D90000024F4001E0000000100000001000000FB
:102DA0000A000000A0680600E09304000400280068
:04000005080001C529
:00000001FF
